{
	"contract/votingsystem.sol": {
		"VotingSystem": {
			"abi": [
				{
					"inputs": [
						{
							"internalType": "string",
							"name": "name",
							"type": "string"
						}
					],
					"name": "addCandidate",
					"outputs": [],
					"stateMutability": "nonpayable",
					"type": "function"
				},
				{
					"inputs": [
						{
							"internalType": "uint256",
							"name": "",
							"type": "uint256"
						}
					],
					"name": "candidates",
					"outputs": [
						{
							"internalType": "uint256",
							"name": "id",
							"type": "uint256"
						},
						{
							"internalType": "string",
							"name": "name",
							"type": "string"
						},
						{
							"internalType": "uint256",
							"name": "voteCount",
							"type": "uint256"
						}
					],
					"stateMutability": "view",
					"type": "function"
				},
				{
					"inputs": [
						{
							"internalType": "uint256",
							"name": "candidateId",
							"type": "uint256"
						}
					],
					"name": "getCandidate",
					"outputs": [
						{
							"internalType": "string",
							"name": "name",
							"type": "string"
						},
						{
							"internalType": "uint256",
							"name": "voteCount",
							"type": "uint256"
						}
					],
					"stateMutability": "view",
					"type": "function"
				},
				{
					"inputs": [],
					"name": "getTotalCandidates",
					"outputs": [
						{
							"internalType": "uint256",
							"name": "",
							"type": "uint256"
						}
					],
					"stateMutability": "view",
					"type": "function"
				},
				{
					"inputs": [],
					"name": "id",
					"outputs": [
						{
							"internalType": "uint256",
							"name": "",
							"type": "uint256"
						}
					],
					"stateMutability": "view",
					"type": "function"
				},
				{
					"inputs": [],
					"name": "owner",
					"outputs": [
						{
							"internalType": "address",
							"name": "",
							"type": "address"
						}
					],
					"stateMutability": "view",
					"type": "function"
				},
				{
					"inputs": [],
					"name": "totalCandidates",
					"outputs": [
						{
							"internalType": "uint256",
							"name": "",
							"type": "uint256"
						}
					],
					"stateMutability": "view",
					"type": "function"
				},
				{
					"inputs": [
						{
							"internalType": "address",
							"name": "",
							"type": "address"
						}
					],
					"name": "userVoted",
					"outputs": [
						{
							"internalType": "bool",
							"name": "",
							"type": "bool"
						}
					],
					"stateMutability": "view",
					"type": "function"
				},
				{
					"inputs": [
						{
							"internalType": "uint256",
							"name": "candidateId",
							"type": "uint256"
						}
					],
					"name": "vote",
					"outputs": [],
					"stateMutability": "nonpayable",
					"type": "function"
				}
			],
			"devdoc": {
				"kind": "dev",
				"methods": {},
				"version": 1
			},
			"evm": {
				"assembly": "    /* \"contract/votingsystem.sol\":249:1308  contract VotingSystem is Ownable{... */\n  mstore(0x40, 0x80)\n  callvalue\n  dup1\n  iszero\n  tag_1\n  jumpi\n  0x00\n  dup1\n  revert\ntag_1:\n  pop\n    /* \"contract/votingsystem.sol\":135:145  msg.sender */\n  caller\n    /* \"contract/votingsystem.sol\":127:132  owner */\n  0x00\n  dup1\n    /* \"contract/votingsystem.sol\":127:145  owner = msg.sender */\n  0x0100\n  exp\n  dup2\n  sload\n  dup2\n  0xffffffffffffffffffffffffffffffffffffffff\n  mul\n  not\n  and\n  swap1\n  dup4\n  0xffffffffffffffffffffffffffffffffffffffff\n  and\n  mul\n  or\n  swap1\n  sstore\n  pop\n    /* \"contract/votingsystem.sol\":249:1308  contract VotingSystem is Ownable{... */\n  dataSize(sub_0)\n  dup1\n  dataOffset(sub_0)\n  0x00\n  codecopy\n  0x00\n  return\nstop\n\nsub_0: assembly {\n        /* \"contract/votingsystem.sol\":249:1308  contract VotingSystem is Ownable{... */\n      mstore(0x40, 0x80)\n      callvalue\n      dup1\n      iszero\n      tag_1\n      jumpi\n      0x00\n      dup1\n      revert\n    tag_1:\n      pop\n      jumpi(tag_2, lt(calldatasize, 0x04))\n      shr(0xe0, calldataload(0x00))\n      dup1\n      0x35b8e820\n      gt\n      tag_12\n      jumpi\n      dup1\n      0x35b8e820\n      eq\n      tag_7\n      jumpi\n      dup1\n      0x3866965c\n      eq\n      tag_8\n      jumpi\n      dup1\n      0x462e91ec\n      eq\n      tag_9\n      jumpi\n      dup1\n      0x8da5cb5b\n      eq\n      tag_10\n      jumpi\n      dup1\n      0xaf640d0f\n      eq\n      tag_11\n      jumpi\n      jump(tag_2)\n    tag_12:\n      dup1\n      0x0121b93f\n      eq\n      tag_3\n      jumpi\n      dup1\n      0x0deb56ab\n      eq\n      tag_4\n      jumpi\n      dup1\n      0x254fe7d7\n      eq\n      tag_5\n      jumpi\n      dup1\n      0x3477ee2e\n      eq\n      tag_6\n      jumpi\n    tag_2:\n      0x00\n      dup1\n      revert\n        /* \"contract/votingsystem.sol\":729:981  function vote (uint candidateId) public {... */\n    tag_3:\n      tag_13\n      0x04\n      dup1\n      calldatasize\n      sub\n      dup2\n      add\n      swap1\n      tag_14\n      swap2\n      swap1\n      tag_15\n      jump\t// in\n    tag_14:\n      tag_16\n      jump\t// in\n    tag_13:\n      stop\n        /* \"contract/votingsystem.sol\":1213:1303  function getTotalCandidates () public view returns (uint){... */\n    tag_4:\n      tag_17\n      tag_18\n      jump\t// in\n    tag_17:\n      mload(0x40)\n      tag_19\n      swap2\n      swap1\n      tag_20\n      jump\t// in\n    tag_19:\n      mload(0x40)\n      dup1\n      swap2\n      sub\n      swap1\n      return\n        /* \"contract/votingsystem.sol\":458:499  mapping(address => bool) public userVoted */\n    tag_5:\n      tag_21\n      0x04\n      dup1\n      calldatasize\n      sub\n      dup2\n      add\n      swap1\n      tag_22\n      swap2\n      swap1\n      tag_23\n      jump\t// in\n    tag_22:\n      tag_24\n      jump\t// in\n    tag_21:\n      mload(0x40)\n      tag_25\n      swap2\n      swap1\n      tag_26\n      jump\t// in\n    tag_25:\n      mload(0x40)\n      dup1\n      swap2\n      sub\n      swap1\n      return\n        /* \"contract/votingsystem.sol\":411:455  mapping(uint => Candidate) public candidates */\n    tag_6:\n      tag_27\n      0x04\n      dup1\n      calldatasize\n      sub\n      dup2\n      add\n      swap1\n      tag_28\n      swap2\n      swap1\n      tag_15\n      jump\t// in\n    tag_28:\n      tag_29\n      jump\t// in\n    tag_27:\n      mload(0x40)\n      tag_30\n      swap4\n      swap3\n      swap2\n      swap1\n      tag_31\n      jump\t// in\n    tag_30:\n      mload(0x40)\n      dup1\n      swap2\n      sub\n      swap1\n      return\n        /* \"contract/votingsystem.sol\":985:1209  function getCandidate(uint candidateId) public  view returns (string memory  name, uint voteCount){... */\n    tag_7:\n      tag_32\n      0x04\n      dup1\n      calldatasize\n      sub\n      dup2\n      add\n      swap1\n      tag_33\n      swap2\n      swap1\n      tag_15\n      jump\t// in\n    tag_33:\n      tag_34\n      jump\t// in\n    tag_32:\n      mload(0x40)\n      tag_35\n      swap3\n      swap2\n      swap1\n      tag_36\n      jump\t// in\n    tag_35:\n      mload(0x40)\n      dup1\n      swap2\n      sub\n      swap1\n      return\n        /* \"contract/votingsystem.sol\":378:406  uint public  totalCandidates */\n    tag_8:\n      tag_37\n      tag_38\n      jump\t// in\n    tag_37:\n      mload(0x40)\n      tag_39\n      swap2\n      swap1\n      tag_20\n      jump\t// in\n    tag_39:\n      mload(0x40)\n      dup1\n      swap2\n      sub\n      swap1\n      return\n        /* \"contract/votingsystem.sol\":504:725  function addCandidate (string calldata name) public onlyOwner{... */\n    tag_9:\n      tag_40\n      0x04\n      dup1\n      calldatasize\n      sub\n      dup2\n      add\n      swap1\n      tag_41\n      swap2\n      swap1\n      tag_42\n      jump\t// in\n    tag_41:\n      tag_43\n      jump\t// in\n    tag_40:\n      stop\n        /* \"contract/votingsystem.sol\":80:101  address public  owner */\n    tag_10:\n      tag_44\n      tag_45\n      jump\t// in\n    tag_44:\n      mload(0x40)\n      tag_46\n      swap2\n      swap1\n      tag_47\n      jump\t// in\n    tag_46:\n      mload(0x40)\n      dup1\n      swap2\n      sub\n      swap1\n      return\n        /* \"contract/votingsystem.sol\":361:375  uint public id */\n    tag_11:\n      tag_48\n      tag_49\n      jump\t// in\n    tag_48:\n      mload(0x40)\n      tag_50\n      swap2\n      swap1\n      tag_20\n      jump\t// in\n    tag_50:\n      mload(0x40)\n      dup1\n      swap2\n      sub\n      swap1\n      return\n        /* \"contract/votingsystem.sol\":729:981  function vote (uint candidateId) public {... */\n    tag_16:\n        /* \"contract/votingsystem.sol\":783:792  userVoted */\n      0x04\n        /* \"contract/votingsystem.sol\":783:804  userVoted[msg.sender] */\n      0x00\n        /* \"contract/votingsystem.sol\":793:803  msg.sender */\n      caller\n        /* \"contract/votingsystem.sol\":783:804  userVoted[msg.sender] */\n      0xffffffffffffffffffffffffffffffffffffffff\n      and\n      0xffffffffffffffffffffffffffffffffffffffff\n      and\n      dup2\n      mstore\n      0x20\n      add\n      swap1\n      dup2\n      mstore\n      0x20\n      add\n      0x00\n      keccak256\n      0x00\n      swap1\n      sload\n      swap1\n      0x0100\n      exp\n      swap1\n      div\n      0xff\n      and\n        /* \"contract/votingsystem.sol\":782:804  !userVoted[msg.sender] */\n      iszero\n        /* \"contract/votingsystem.sol\":774:829  require(!userVoted[msg.sender], \"You can't vote twice\") */\n      tag_52\n      jumpi\n      mload(0x40)\n      0x08c379a000000000000000000000000000000000000000000000000000000000\n      dup2\n      mstore\n      0x04\n      add\n      tag_53\n      swap1\n      tag_54\n      jump\t// in\n    tag_53:\n      mload(0x40)\n      dup1\n      swap2\n      sub\n      swap1\n      revert\n    tag_52:\n        /* \"contract/votingsystem.sol\":854:869  totalCandidates */\n      sload(0x02)\n        /* \"contract/votingsystem.sol\":840:851  candidateId */\n      dup2\n        /* \"contract/votingsystem.sol\":840:869  candidateId < totalCandidates */\n      lt\n        /* \"contract/votingsystem.sol\":832:903  require(candidateId < totalCandidates, \"Such candidate does not exist\") */\n      tag_55\n      jumpi\n      mload(0x40)\n      0x08c379a000000000000000000000000000000000000000000000000000000000\n      dup2\n      mstore\n      0x04\n      add\n      tag_56\n      swap1\n      tag_57\n      jump\t// in\n    tag_56:\n      mload(0x40)\n      dup1\n      swap2\n      sub\n      swap1\n      revert\n    tag_55:\n        /* \"contract/votingsystem.sol\":909:919  candidates */\n      0x03\n        /* \"contract/votingsystem.sol\":909:932  candidates[candidateId] */\n      0x00\n        /* \"contract/votingsystem.sol\":920:931  candidateId */\n      dup3\n        /* \"contract/votingsystem.sol\":909:932  candidates[candidateId] */\n      dup2\n      mstore\n      0x20\n      add\n      swap1\n      dup2\n      mstore\n      0x20\n      add\n      0x00\n      keccak256\n        /* \"contract/votingsystem.sol\":909:942  candidates[candidateId].voteCount */\n      0x02\n      add\n      0x00\n        /* \"contract/votingsystem.sol\":909:944  candidates[candidateId].voteCount++ */\n      dup2\n      sload\n      dup1\n      swap3\n      swap2\n      swap1\n      tag_58\n      swap1\n      tag_59\n      jump\t// in\n    tag_58:\n      swap2\n      swap1\n      pop\n      sstore\n      pop\n        /* \"contract/votingsystem.sol\":973:977  true */\n      0x01\n        /* \"contract/votingsystem.sol\":949:958  userVoted */\n      0x04\n        /* \"contract/votingsystem.sol\":949:970  userVoted[msg.sender] */\n      0x00\n        /* \"contract/votingsystem.sol\":959:969  msg.sender */\n      caller\n        /* \"contract/votingsystem.sol\":949:970  userVoted[msg.sender] */\n      0xffffffffffffffffffffffffffffffffffffffff\n      and\n      0xffffffffffffffffffffffffffffffffffffffff\n      and\n      dup2\n      mstore\n      0x20\n      add\n      swap1\n      dup2\n      mstore\n      0x20\n      add\n      0x00\n      keccak256\n      0x00\n        /* \"contract/votingsystem.sol\":949:977  userVoted[msg.sender] = true */\n      0x0100\n      exp\n      dup2\n      sload\n      dup2\n      0xff\n      mul\n      not\n      and\n      swap1\n      dup4\n      iszero\n      iszero\n      mul\n      or\n      swap1\n      sstore\n      pop\n        /* \"contract/votingsystem.sol\":729:981  function vote (uint candidateId) public {... */\n      pop\n      jump\t// out\n        /* \"contract/votingsystem.sol\":1213:1303  function getTotalCandidates () public view returns (uint){... */\n    tag_18:\n        /* \"contract/votingsystem.sol\":1265:1269  uint */\n      0x00\n        /* \"contract/votingsystem.sol\":1284:1299  totalCandidates */\n      sload(0x02)\n        /* \"contract/votingsystem.sol\":1277:1299  return totalCandidates */\n      swap1\n      pop\n        /* \"contract/votingsystem.sol\":1213:1303  function getTotalCandidates () public view returns (uint){... */\n      swap1\n      jump\t// out\n        /* \"contract/votingsystem.sol\":458:499  mapping(address => bool) public userVoted */\n    tag_24:\n      mstore(0x20, 0x04)\n      dup1\n      0x00\n      mstore\n      keccak256(0x00, 0x40)\n      0x00\n      swap2\n      pop\n      sload\n      swap1\n      0x0100\n      exp\n      swap1\n      div\n      0xff\n      and\n      dup2\n      jump\t// out\n        /* \"contract/votingsystem.sol\":411:455  mapping(uint => Candidate) public candidates */\n    tag_29:\n      mstore(0x20, 0x03)\n      dup1\n      0x00\n      mstore\n      keccak256(0x00, 0x40)\n      0x00\n      swap2\n      pop\n      swap1\n      pop\n      dup1\n      0x00\n      add\n      sload\n      swap1\n      dup1\n      0x01\n      add\n      dup1\n      sload\n      tag_61\n      swap1\n      tag_62\n      jump\t// in\n    tag_61:\n      dup1\n      0x1f\n      add\n      0x20\n      dup1\n      swap2\n      div\n      mul\n      0x20\n      add\n      mload(0x40)\n      swap1\n      dup2\n      add\n      0x40\n      mstore\n      dup1\n      swap3\n      swap2\n      swap1\n      dup2\n      dup2\n      mstore\n      0x20\n      add\n      dup3\n      dup1\n      sload\n      tag_63\n      swap1\n      tag_62\n      jump\t// in\n    tag_63:\n      dup1\n      iszero\n      tag_64\n      jumpi\n      dup1\n      0x1f\n      lt\n      tag_65\n      jumpi\n      0x0100\n      dup1\n      dup4\n      sload\n      div\n      mul\n      dup4\n      mstore\n      swap2\n      0x20\n      add\n      swap2\n      jump(tag_64)\n    tag_65:\n      dup3\n      add\n      swap2\n      swap1\n      0x00\n      mstore\n      keccak256(0x00, 0x20)\n      swap1\n    tag_66:\n      dup2\n      sload\n      dup2\n      mstore\n      swap1\n      0x01\n      add\n      swap1\n      0x20\n      add\n      dup1\n      dup4\n      gt\n      tag_66\n      jumpi\n      dup3\n      swap1\n      sub\n      0x1f\n      and\n      dup3\n      add\n      swap2\n    tag_64:\n      pop\n      pop\n      pop\n      pop\n      pop\n      swap1\n      dup1\n      0x02\n      add\n      sload\n      swap1\n      pop\n      dup4\n      jump\t// out\n        /* \"contract/votingsystem.sol\":985:1209  function getCandidate(uint candidateId) public  view returns (string memory  name, uint voteCount){... */\n    tag_34:\n        /* \"contract/votingsystem.sol\":1047:1066  string memory  name */\n      0x60\n        /* \"contract/votingsystem.sol\":1068:1082  uint voteCount */\n      0x00\n        /* \"contract/votingsystem.sol\":1090:1120  Candidate memory candidateInfo */\n      dup1\n        /* \"contract/votingsystem.sol\":1123:1133  candidates */\n      0x03\n        /* \"contract/votingsystem.sol\":1123:1146  candidates[candidateId] */\n      0x00\n        /* \"contract/votingsystem.sol\":1134:1145  candidateId */\n      dup6\n        /* \"contract/votingsystem.sol\":1123:1146  candidates[candidateId] */\n      dup2\n      mstore\n      0x20\n      add\n      swap1\n      dup2\n      mstore\n      0x20\n      add\n      0x00\n      keccak256\n        /* \"contract/votingsystem.sol\":1090:1146  Candidate memory candidateInfo = candidates[candidateId] */\n      mload(0x40)\n      dup1\n      0x60\n      add\n      0x40\n      mstore\n      swap1\n      dup2\n      0x00\n      dup3\n      add\n      sload\n      dup2\n      mstore\n      0x20\n      add\n      0x01\n      dup3\n      add\n      dup1\n      sload\n      tag_68\n      swap1\n      tag_62\n      jump\t// in\n    tag_68:\n      dup1\n      0x1f\n      add\n      0x20\n      dup1\n      swap2\n      div\n      mul\n      0x20\n      add\n      mload(0x40)\n      swap1\n      dup2\n      add\n      0x40\n      mstore\n      dup1\n      swap3\n      swap2\n      swap1\n      dup2\n      dup2\n      mstore\n      0x20\n      add\n      dup3\n      dup1\n      sload\n      tag_69\n      swap1\n      tag_62\n      jump\t// in\n    tag_69:\n      dup1\n      iszero\n      tag_70\n      jumpi\n      dup1\n      0x1f\n      lt\n      tag_71\n      jumpi\n      0x0100\n      dup1\n      dup4\n      sload\n      div\n      mul\n      dup4\n      mstore\n      swap2\n      0x20\n      add\n      swap2\n      jump(tag_70)\n    tag_71:\n      dup3\n      add\n      swap2\n      swap1\n      0x00\n      mstore\n      keccak256(0x00, 0x20)\n      swap1\n    tag_72:\n      dup2\n      sload\n      dup2\n      mstore\n      swap1\n      0x01\n      add\n      swap1\n      0x20\n      add\n      dup1\n      dup4\n      gt\n      tag_72\n      jumpi\n      dup3\n      swap1\n      sub\n      0x1f\n      and\n      dup3\n      add\n      swap2\n    tag_70:\n      pop\n      pop\n      pop\n      pop\n      pop\n      dup2\n      mstore\n      0x20\n      add\n      0x02\n      dup3\n      add\n      sload\n      dup2\n      mstore\n      pop\n      pop\n      swap1\n      pop\n        /* \"contract/votingsystem.sol\":1161:1174  candidateInfo */\n      dup1\n        /* \"contract/votingsystem.sol\":1161:1179  candidateInfo.name */\n      0x20\n      add\n      mload\n        /* \"contract/votingsystem.sol\":1181:1194  candidateInfo */\n      dup2\n        /* \"contract/votingsystem.sol\":1181:1204  candidateInfo.voteCount */\n      0x40\n      add\n      mload\n        /* \"contract/votingsystem.sol\":1153:1205  return (candidateInfo.name, candidateInfo.voteCount) */\n      swap3\n      pop\n      swap3\n      pop\n      pop\n        /* \"contract/votingsystem.sol\":985:1209  function getCandidate(uint candidateId) public  view returns (string memory  name, uint voteCount){... */\n      swap2\n      pop\n      swap2\n      jump\t// out\n        /* \"contract/votingsystem.sol\":378:406  uint public  totalCandidates */\n    tag_38:\n      sload(0x02)\n      dup2\n      jump\t// out\n        /* \"contract/votingsystem.sol\":504:725  function addCandidate (string calldata name) public onlyOwner{... */\n    tag_43:\n        /* \"contract/votingsystem.sol\":198:208  msg.sender */\n      caller\n        /* \"contract/votingsystem.sol\":189:208  owner == msg.sender */\n      0xffffffffffffffffffffffffffffffffffffffff\n      and\n        /* \"contract/votingsystem.sol\":189:194  owner */\n      0x00\n      dup1\n      sload\n      swap1\n      0x0100\n      exp\n      swap1\n      div\n      0xffffffffffffffffffffffffffffffffffffffff\n      and\n        /* \"contract/votingsystem.sol\":189:208  owner == msg.sender */\n      0xffffffffffffffffffffffffffffffffffffffff\n      and\n      eq\n        /* \"contract/votingsystem.sol\":181:234  require(owner == msg.sender, \"You don't have access\") */\n      tag_74\n      jumpi\n      mload(0x40)\n      0x08c379a000000000000000000000000000000000000000000000000000000000\n      dup2\n      mstore\n      0x04\n      add\n      tag_75\n      swap1\n      tag_76\n      jump\t// in\n    tag_75:\n      mload(0x40)\n      dup1\n      swap2\n      sub\n      swap1\n      revert\n    tag_74:\n        /* \"contract/votingsystem.sol\":572:599  string memory candidateName */\n      0x00\n        /* \"contract/votingsystem.sol\":602:606  name */\n      dup3\n      dup3\n        /* \"contract/votingsystem.sol\":572:606  string memory candidateName = name */\n      dup1\n      dup1\n      0x1f\n      add\n      0x20\n      dup1\n      swap2\n      div\n      mul\n      0x20\n      add\n      mload(0x40)\n      swap1\n      dup2\n      add\n      0x40\n      mstore\n      dup1\n      swap4\n      swap3\n      swap2\n      swap1\n      dup2\n      dup2\n      mstore\n      0x20\n      add\n      dup4\n      dup4\n      dup1\n      dup3\n      dup5\n      calldatacopy\n      0x00\n      dup2\n      dup5\n      add\n      mstore\n      not(0x1f)\n      0x1f\n      dup3\n      add\n      and\n      swap1\n      pop\n      dup1\n      dup4\n      add\n      swap3\n      pop\n      pop\n      pop\n      pop\n      pop\n      pop\n      pop\n      swap1\n      pop\n        /* \"contract/votingsystem.sol\":630:684  Candidate({id: id, name: candidateName, voteCount: 0}) */\n      mload(0x40)\n      dup1\n      0x60\n      add\n      0x40\n      mstore\n      dup1\n        /* \"contract/votingsystem.sol\":645:647  id */\n      sload(0x01)\n        /* \"contract/votingsystem.sol\":630:684  Candidate({id: id, name: candidateName, voteCount: 0}) */\n      dup2\n      mstore\n      0x20\n      add\n        /* \"contract/votingsystem.sol\":655:668  candidateName */\n      dup3\n        /* \"contract/votingsystem.sol\":630:684  Candidate({id: id, name: candidateName, voteCount: 0}) */\n      dup2\n      mstore\n      0x20\n      add\n        /* \"contract/votingsystem.sol\":681:682  0 */\n      0x00\n        /* \"contract/votingsystem.sol\":630:684  Candidate({id: id, name: candidateName, voteCount: 0}) */\n      dup2\n      mstore\n      pop\n        /* \"contract/votingsystem.sol\":613:623  candidates */\n      0x03\n        /* \"contract/votingsystem.sol\":613:627  candidates[id] */\n      0x00\n        /* \"contract/votingsystem.sol\":624:626  id */\n      sload(0x01)\n        /* \"contract/votingsystem.sol\":613:627  candidates[id] */\n      dup2\n      mstore\n      0x20\n      add\n      swap1\n      dup2\n      mstore\n      0x20\n      add\n      0x00\n      keccak256\n        /* \"contract/votingsystem.sol\":613:684  candidates[id] = Candidate({id: id, name: candidateName, voteCount: 0}) */\n      0x00\n      dup3\n      add\n      mload\n      dup2\n      0x00\n      add\n      sstore\n      0x20\n      dup3\n      add\n      mload\n      dup2\n      0x01\n      add\n      swap1\n      dup2\n      tag_78\n      swap2\n      swap1\n      tag_79\n      jump\t// in\n    tag_78:\n      pop\n      0x40\n      dup3\n      add\n      mload\n      dup2\n      0x02\n      add\n      sstore\n      swap1\n      pop\n      pop\n        /* \"contract/votingsystem.sol\":693:695  id */\n      0x01\n      0x00\n        /* \"contract/votingsystem.sol\":693:697  id++ */\n      dup2\n      sload\n      dup1\n      swap3\n      swap2\n      swap1\n      tag_80\n      swap1\n      tag_59\n      jump\t// in\n    tag_80:\n      swap2\n      swap1\n      pop\n      sstore\n      pop\n        /* \"contract/votingsystem.sol\":704:719  totalCandidates */\n      0x02\n      0x00\n        /* \"contract/votingsystem.sol\":704:721  totalCandidates++ */\n      dup2\n      sload\n      dup1\n      swap3\n      swap2\n      swap1\n      tag_81\n      swap1\n      tag_59\n      jump\t// in\n    tag_81:\n      swap2\n      swap1\n      pop\n      sstore\n      pop\n        /* \"contract/votingsystem.sol\":565:725  {... */\n      pop\n        /* \"contract/votingsystem.sol\":504:725  function addCandidate (string calldata name) public onlyOwner{... */\n      pop\n      pop\n      jump\t// out\n        /* \"contract/votingsystem.sol\":80:101  address public  owner */\n    tag_45:\n      0x00\n      dup1\n      sload\n      swap1\n      0x0100\n      exp\n      swap1\n      div\n      0xffffffffffffffffffffffffffffffffffffffff\n      and\n      dup2\n      jump\t// out\n        /* \"contract/votingsystem.sol\":361:375  uint public id */\n    tag_49:\n      sload(0x01)\n      dup2\n      jump\t// out\n        /* \"#utility.yul\":88:205   */\n    tag_83:\n        /* \"#utility.yul\":197:198   */\n      0x00\n        /* \"#utility.yul\":194:195   */\n      dup1\n        /* \"#utility.yul\":187:199   */\n      revert\n        /* \"#utility.yul\":211:328   */\n    tag_84:\n        /* \"#utility.yul\":320:321   */\n      0x00\n        /* \"#utility.yul\":317:318   */\n      dup1\n        /* \"#utility.yul\":310:322   */\n      revert\n        /* \"#utility.yul\":334:411   */\n    tag_85:\n        /* \"#utility.yul\":371:378   */\n      0x00\n        /* \"#utility.yul\":400:405   */\n      dup2\n        /* \"#utility.yul\":389:405   */\n      swap1\n      pop\n        /* \"#utility.yul\":334:411   */\n      swap2\n      swap1\n      pop\n      jump\t// out\n        /* \"#utility.yul\":417:539   */\n    tag_86:\n        /* \"#utility.yul\":490:514   */\n      tag_135\n        /* \"#utility.yul\":508:513   */\n      dup2\n        /* \"#utility.yul\":490:514   */\n      tag_85\n      jump\t// in\n    tag_135:\n        /* \"#utility.yul\":483:488   */\n      dup2\n        /* \"#utility.yul\":480:515   */\n      eq\n        /* \"#utility.yul\":470:533   */\n      tag_136\n      jumpi\n        /* \"#utility.yul\":529:530   */\n      0x00\n        /* \"#utility.yul\":526:527   */\n      dup1\n        /* \"#utility.yul\":519:531   */\n      revert\n        /* \"#utility.yul\":470:533   */\n    tag_136:\n        /* \"#utility.yul\":417:539   */\n      pop\n      jump\t// out\n        /* \"#utility.yul\":545:684   */\n    tag_87:\n        /* \"#utility.yul\":591:596   */\n      0x00\n        /* \"#utility.yul\":629:635   */\n      dup2\n        /* \"#utility.yul\":616:636   */\n      calldataload\n        /* \"#utility.yul\":607:636   */\n      swap1\n      pop\n        /* \"#utility.yul\":645:678   */\n      tag_138\n        /* \"#utility.yul\":672:677   */\n      dup2\n        /* \"#utility.yul\":645:678   */\n      tag_86\n      jump\t// in\n    tag_138:\n        /* \"#utility.yul\":545:684   */\n      swap3\n      swap2\n      pop\n      pop\n      jump\t// out\n        /* \"#utility.yul\":690:1019   */\n    tag_15:\n        /* \"#utility.yul\":749:755   */\n      0x00\n        /* \"#utility.yul\":798:800   */\n      0x20\n        /* \"#utility.yul\":786:795   */\n      dup3\n        /* \"#utility.yul\":777:784   */\n      dup5\n        /* \"#utility.yul\":773:796   */\n      sub\n        /* \"#utility.yul\":769:801   */\n      slt\n        /* \"#utility.yul\":766:885   */\n      iszero\n      tag_140\n      jumpi\n        /* \"#utility.yul\":804:883   */\n      tag_141\n      tag_83\n      jump\t// in\n    tag_141:\n        /* \"#utility.yul\":766:885   */\n    tag_140:\n        /* \"#utility.yul\":924:925   */\n      0x00\n        /* \"#utility.yul\":949:1002   */\n      tag_142\n        /* \"#utility.yul\":994:1001   */\n      dup5\n        /* \"#utility.yul\":985:991   */\n      dup3\n        /* \"#utility.yul\":974:983   */\n      dup6\n        /* \"#utility.yul\":970:992   */\n      add\n        /* \"#utility.yul\":949:1002   */\n      tag_87\n      jump\t// in\n    tag_142:\n        /* \"#utility.yul\":939:1002   */\n      swap2\n      pop\n        /* \"#utility.yul\":895:1012   */\n      pop\n        /* \"#utility.yul\":690:1019   */\n      swap3\n      swap2\n      pop\n      pop\n      jump\t// out\n        /* \"#utility.yul\":1025:1143   */\n    tag_88:\n        /* \"#utility.yul\":1112:1136   */\n      tag_144\n        /* \"#utility.yul\":1130:1135   */\n      dup2\n        /* \"#utility.yul\":1112:1136   */\n      tag_85\n      jump\t// in\n    tag_144:\n        /* \"#utility.yul\":1107:1110   */\n      dup3\n        /* \"#utility.yul\":1100:1137   */\n      mstore\n        /* \"#utility.yul\":1025:1143   */\n      pop\n      pop\n      jump\t// out\n        /* \"#utility.yul\":1149:1371   */\n    tag_20:\n        /* \"#utility.yul\":1242:1246   */\n      0x00\n        /* \"#utility.yul\":1280:1282   */\n      0x20\n        /* \"#utility.yul\":1269:1278   */\n      dup3\n        /* \"#utility.yul\":1265:1283   */\n      add\n        /* \"#utility.yul\":1257:1283   */\n      swap1\n      pop\n        /* \"#utility.yul\":1293:1364   */\n      tag_146\n        /* \"#utility.yul\":1361:1362   */\n      0x00\n        /* \"#utility.yul\":1350:1359   */\n      dup4\n        /* \"#utility.yul\":1346:1363   */\n      add\n        /* \"#utility.yul\":1337:1343   */\n      dup5\n        /* \"#utility.yul\":1293:1364   */\n      tag_88\n      jump\t// in\n    tag_146:\n        /* \"#utility.yul\":1149:1371   */\n      swap3\n      swap2\n      pop\n      pop\n      jump\t// out\n        /* \"#utility.yul\":1377:1503   */\n    tag_89:\n        /* \"#utility.yul\":1414:1421   */\n      0x00\n        /* \"#utility.yul\":1454:1496   */\n      0xffffffffffffffffffffffffffffffffffffffff\n        /* \"#utility.yul\":1447:1452   */\n      dup3\n        /* \"#utility.yul\":1443:1497   */\n      and\n        /* \"#utility.yul\":1432:1497   */\n      swap1\n      pop\n        /* \"#utility.yul\":1377:1503   */\n      swap2\n      swap1\n      pop\n      jump\t// out\n        /* \"#utility.yul\":1509:1605   */\n    tag_90:\n        /* \"#utility.yul\":1546:1553   */\n      0x00\n        /* \"#utility.yul\":1575:1599   */\n      tag_149\n        /* \"#utility.yul\":1593:1598   */\n      dup3\n        /* \"#utility.yul\":1575:1599   */\n      tag_89\n      jump\t// in\n    tag_149:\n        /* \"#utility.yul\":1564:1599   */\n      swap1\n      pop\n        /* \"#utility.yul\":1509:1605   */\n      swap2\n      swap1\n      pop\n      jump\t// out\n        /* \"#utility.yul\":1611:1733   */\n    tag_91:\n        /* \"#utility.yul\":1684:1708   */\n      tag_151\n        /* \"#utility.yul\":1702:1707   */\n      dup2\n        /* \"#utility.yul\":1684:1708   */\n      tag_90\n      jump\t// in\n    tag_151:\n        /* \"#utility.yul\":1677:1682   */\n      dup2\n        /* \"#utility.yul\":1674:1709   */\n      eq\n        /* \"#utility.yul\":1664:1727   */\n      tag_152\n      jumpi\n        /* \"#utility.yul\":1723:1724   */\n      0x00\n        /* \"#utility.yul\":1720:1721   */\n      dup1\n        /* \"#utility.yul\":1713:1725   */\n      revert\n        /* \"#utility.yul\":1664:1727   */\n    tag_152:\n        /* \"#utility.yul\":1611:1733   */\n      pop\n      jump\t// out\n        /* \"#utility.yul\":1739:1878   */\n    tag_92:\n        /* \"#utility.yul\":1785:1790   */\n      0x00\n        /* \"#utility.yul\":1823:1829   */\n      dup2\n        /* \"#utility.yul\":1810:1830   */\n      calldataload\n        /* \"#utility.yul\":1801:1830   */\n      swap1\n      pop\n        /* \"#utility.yul\":1839:1872   */\n      tag_154\n        /* \"#utility.yul\":1866:1871   */\n      dup2\n        /* \"#utility.yul\":1839:1872   */\n      tag_91\n      jump\t// in\n    tag_154:\n        /* \"#utility.yul\":1739:1878   */\n      swap3\n      swap2\n      pop\n      pop\n      jump\t// out\n        /* \"#utility.yul\":1884:2213   */\n    tag_23:\n        /* \"#utility.yul\":1943:1949   */\n      0x00\n        /* \"#utility.yul\":1992:1994   */\n      0x20\n        /* \"#utility.yul\":1980:1989   */\n      dup3\n        /* \"#utility.yul\":1971:1978   */\n      dup5\n        /* \"#utility.yul\":1967:1990   */\n      sub\n        /* \"#utility.yul\":1963:1995   */\n      slt\n        /* \"#utility.yul\":1960:2079   */\n      iszero\n      tag_156\n      jumpi\n        /* \"#utility.yul\":1998:2077   */\n      tag_157\n      tag_83\n      jump\t// in\n    tag_157:\n        /* \"#utility.yul\":1960:2079   */\n    tag_156:\n        /* \"#utility.yul\":2118:2119   */\n      0x00\n        /* \"#utility.yul\":2143:2196   */\n      tag_158\n        /* \"#utility.yul\":2188:2195   */\n      dup5\n        /* \"#utility.yul\":2179:2185   */\n      dup3\n        /* \"#utility.yul\":2168:2177   */\n      dup6\n        /* \"#utility.yul\":2164:2186   */\n      add\n        /* \"#utility.yul\":2143:2196   */\n      tag_92\n      jump\t// in\n    tag_158:\n        /* \"#utility.yul\":2133:2196   */\n      swap2\n      pop\n        /* \"#utility.yul\":2089:2206   */\n      pop\n        /* \"#utility.yul\":1884:2213   */\n      swap3\n      swap2\n      pop\n      pop\n      jump\t// out\n        /* \"#utility.yul\":2219:2309   */\n    tag_93:\n        /* \"#utility.yul\":2253:2260   */\n      0x00\n        /* \"#utility.yul\":2296:2301   */\n      dup2\n        /* \"#utility.yul\":2289:2302   */\n      iszero\n        /* \"#utility.yul\":2282:2303   */\n      iszero\n        /* \"#utility.yul\":2271:2303   */\n      swap1\n      pop\n        /* \"#utility.yul\":2219:2309   */\n      swap2\n      swap1\n      pop\n      jump\t// out\n        /* \"#utility.yul\":2315:2424   */\n    tag_94:\n        /* \"#utility.yul\":2396:2417   */\n      tag_161\n        /* \"#utility.yul\":2411:2416   */\n      dup2\n        /* \"#utility.yul\":2396:2417   */\n      tag_93\n      jump\t// in\n    tag_161:\n        /* \"#utility.yul\":2391:2394   */\n      dup3\n        /* \"#utility.yul\":2384:2418   */\n      mstore\n        /* \"#utility.yul\":2315:2424   */\n      pop\n      pop\n      jump\t// out\n        /* \"#utility.yul\":2430:2640   */\n    tag_26:\n        /* \"#utility.yul\":2517:2521   */\n      0x00\n        /* \"#utility.yul\":2555:2557   */\n      0x20\n        /* \"#utility.yul\":2544:2553   */\n      dup3\n        /* \"#utility.yul\":2540:2558   */\n      add\n        /* \"#utility.yul\":2532:2558   */\n      swap1\n      pop\n        /* \"#utility.yul\":2568:2633   */\n      tag_163\n        /* \"#utility.yul\":2630:2631   */\n      0x00\n        /* \"#utility.yul\":2619:2628   */\n      dup4\n        /* \"#utility.yul\":2615:2632   */\n      add\n        /* \"#utility.yul\":2606:2612   */\n      dup5\n        /* \"#utility.yul\":2568:2633   */\n      tag_94\n      jump\t// in\n    tag_163:\n        /* \"#utility.yul\":2430:2640   */\n      swap3\n      swap2\n      pop\n      pop\n      jump\t// out\n        /* \"#utility.yul\":2646:2745   */\n    tag_95:\n        /* \"#utility.yul\":2698:2704   */\n      0x00\n        /* \"#utility.yul\":2732:2737   */\n      dup2\n        /* \"#utility.yul\":2726:2738   */\n      mload\n        /* \"#utility.yul\":2716:2738   */\n      swap1\n      pop\n        /* \"#utility.yul\":2646:2745   */\n      swap2\n      swap1\n      pop\n      jump\t// out\n        /* \"#utility.yul\":2751:2920   */\n    tag_96:\n        /* \"#utility.yul\":2835:2846   */\n      0x00\n        /* \"#utility.yul\":2869:2875   */\n      dup3\n        /* \"#utility.yul\":2864:2867   */\n      dup3\n        /* \"#utility.yul\":2857:2876   */\n      mstore\n        /* \"#utility.yul\":2909:2913   */\n      0x20\n        /* \"#utility.yul\":2904:2907   */\n      dup3\n        /* \"#utility.yul\":2900:2914   */\n      add\n        /* \"#utility.yul\":2885:2914   */\n      swap1\n      pop\n        /* \"#utility.yul\":2751:2920   */\n      swap3\n      swap2\n      pop\n      pop\n      jump\t// out\n        /* \"#utility.yul\":2926:3065   */\n    tag_97:\n        /* \"#utility.yul\":3015:3021   */\n      dup3\n        /* \"#utility.yul\":3010:3013   */\n      dup2\n        /* \"#utility.yul\":3005:3008   */\n      dup4\n        /* \"#utility.yul\":2999:3022   */\n      mcopy\n        /* \"#utility.yul\":3056:3057   */\n      0x00\n        /* \"#utility.yul\":3047:3053   */\n      dup4\n        /* \"#utility.yul\":3042:3045   */\n      dup4\n        /* \"#utility.yul\":3038:3054   */\n      add\n        /* \"#utility.yul\":3031:3058   */\n      mstore\n        /* \"#utility.yul\":2926:3065   */\n      pop\n      pop\n      pop\n      jump\t// out\n        /* \"#utility.yul\":3071:3173   */\n    tag_98:\n        /* \"#utility.yul\":3112:3118   */\n      0x00\n        /* \"#utility.yul\":3163:3165   */\n      0x1f\n        /* \"#utility.yul\":3159:3166   */\n      not\n        /* \"#utility.yul\":3154:3156   */\n      0x1f\n        /* \"#utility.yul\":3147:3152   */\n      dup4\n        /* \"#utility.yul\":3143:3157   */\n      add\n        /* \"#utility.yul\":3139:3167   */\n      and\n        /* \"#utility.yul\":3129:3167   */\n      swap1\n      pop\n        /* \"#utility.yul\":3071:3173   */\n      swap2\n      swap1\n      pop\n      jump\t// out\n        /* \"#utility.yul\":3179:3556   */\n    tag_99:\n        /* \"#utility.yul\":3267:3270   */\n      0x00\n        /* \"#utility.yul\":3295:3334   */\n      tag_169\n        /* \"#utility.yul\":3328:3333   */\n      dup3\n        /* \"#utility.yul\":3295:3334   */\n      tag_95\n      jump\t// in\n    tag_169:\n        /* \"#utility.yul\":3350:3421   */\n      tag_170\n        /* \"#utility.yul\":3414:3420   */\n      dup2\n        /* \"#utility.yul\":3409:3412   */\n      dup6\n        /* \"#utility.yul\":3350:3421   */\n      tag_96\n      jump\t// in\n    tag_170:\n        /* \"#utility.yul\":3343:3421   */\n      swap4\n      pop\n        /* \"#utility.yul\":3430:3495   */\n      tag_171\n        /* \"#utility.yul\":3488:3494   */\n      dup2\n        /* \"#utility.yul\":3483:3486   */\n      dup6\n        /* \"#utility.yul\":3476:3480   */\n      0x20\n        /* \"#utility.yul\":3469:3474   */\n      dup7\n        /* \"#utility.yul\":3465:3481   */\n      add\n        /* \"#utility.yul\":3430:3495   */\n      tag_97\n      jump\t// in\n    tag_171:\n        /* \"#utility.yul\":3520:3549   */\n      tag_172\n        /* \"#utility.yul\":3542:3548   */\n      dup2\n        /* \"#utility.yul\":3520:3549   */\n      tag_98\n      jump\t// in\n    tag_172:\n        /* \"#utility.yul\":3515:3518   */\n      dup5\n        /* \"#utility.yul\":3511:3550   */\n      add\n        /* \"#utility.yul\":3504:3550   */\n      swap2\n      pop\n        /* \"#utility.yul\":3271:3556   */\n      pop\n        /* \"#utility.yul\":3179:3556   */\n      swap3\n      swap2\n      pop\n      pop\n      jump\t// out\n        /* \"#utility.yul\":3562:4095   */\n    tag_31:\n        /* \"#utility.yul\":3731:3735   */\n      0x00\n        /* \"#utility.yul\":3769:3771   */\n      0x60\n        /* \"#utility.yul\":3758:3767   */\n      dup3\n        /* \"#utility.yul\":3754:3772   */\n      add\n        /* \"#utility.yul\":3746:3772   */\n      swap1\n      pop\n        /* \"#utility.yul\":3782:3853   */\n      tag_174\n        /* \"#utility.yul\":3850:3851   */\n      0x00\n        /* \"#utility.yul\":3839:3848   */\n      dup4\n        /* \"#utility.yul\":3835:3852   */\n      add\n        /* \"#utility.yul\":3826:3832   */\n      dup7\n        /* \"#utility.yul\":3782:3853   */\n      tag_88\n      jump\t// in\n    tag_174:\n        /* \"#utility.yul\":3900:3909   */\n      dup2\n        /* \"#utility.yul\":3894:3898   */\n      dup2\n        /* \"#utility.yul\":3890:3910   */\n      sub\n        /* \"#utility.yul\":3885:3887   */\n      0x20\n        /* \"#utility.yul\":3874:3883   */\n      dup4\n        /* \"#utility.yul\":3870:3888   */\n      add\n        /* \"#utility.yul\":3863:3911   */\n      mstore\n        /* \"#utility.yul\":3928:4006   */\n      tag_175\n        /* \"#utility.yul\":4001:4005   */\n      dup2\n        /* \"#utility.yul\":3992:3998   */\n      dup6\n        /* \"#utility.yul\":3928:4006   */\n      tag_99\n      jump\t// in\n    tag_175:\n        /* \"#utility.yul\":3920:4006   */\n      swap1\n      pop\n        /* \"#utility.yul\":4016:4088   */\n      tag_176\n        /* \"#utility.yul\":4084:4086   */\n      0x40\n        /* \"#utility.yul\":4073:4082   */\n      dup4\n        /* \"#utility.yul\":4069:4087   */\n      add\n        /* \"#utility.yul\":4060:4066   */\n      dup5\n        /* \"#utility.yul\":4016:4088   */\n      tag_88\n      jump\t// in\n    tag_176:\n        /* \"#utility.yul\":3562:4095   */\n      swap5\n      swap4\n      pop\n      pop\n      pop\n      pop\n      jump\t// out\n        /* \"#utility.yul\":4101:4524   */\n    tag_36:\n        /* \"#utility.yul\":4242:4246   */\n      0x00\n        /* \"#utility.yul\":4280:4282   */\n      0x40\n        /* \"#utility.yul\":4269:4278   */\n      dup3\n        /* \"#utility.yul\":4265:4283   */\n      add\n        /* \"#utility.yul\":4257:4283   */\n      swap1\n      pop\n        /* \"#utility.yul\":4329:4338   */\n      dup2\n        /* \"#utility.yul\":4323:4327   */\n      dup2\n        /* \"#utility.yul\":4319:4339   */\n      sub\n        /* \"#utility.yul\":4315:4316   */\n      0x00\n        /* \"#utility.yul\":4304:4313   */\n      dup4\n        /* \"#utility.yul\":4300:4317   */\n      add\n        /* \"#utility.yul\":4293:4340   */\n      mstore\n        /* \"#utility.yul\":4357:4435   */\n      tag_178\n        /* \"#utility.yul\":4430:4434   */\n      dup2\n        /* \"#utility.yul\":4421:4427   */\n      dup6\n        /* \"#utility.yul\":4357:4435   */\n      tag_99\n      jump\t// in\n    tag_178:\n        /* \"#utility.yul\":4349:4435   */\n      swap1\n      pop\n        /* \"#utility.yul\":4445:4517   */\n      tag_179\n        /* \"#utility.yul\":4513:4515   */\n      0x20\n        /* \"#utility.yul\":4502:4511   */\n      dup4\n        /* \"#utility.yul\":4498:4516   */\n      add\n        /* \"#utility.yul\":4489:4495   */\n      dup5\n        /* \"#utility.yul\":4445:4517   */\n      tag_88\n      jump\t// in\n    tag_179:\n        /* \"#utility.yul\":4101:4524   */\n      swap4\n      swap3\n      pop\n      pop\n      pop\n      jump\t// out\n        /* \"#utility.yul\":4530:4647   */\n    tag_100:\n        /* \"#utility.yul\":4639:4640   */\n      0x00\n        /* \"#utility.yul\":4636:4637   */\n      dup1\n        /* \"#utility.yul\":4629:4641   */\n      revert\n        /* \"#utility.yul\":4653:4770   */\n    tag_101:\n        /* \"#utility.yul\":4762:4763   */\n      0x00\n        /* \"#utility.yul\":4759:4760   */\n      dup1\n        /* \"#utility.yul\":4752:4764   */\n      revert\n        /* \"#utility.yul\":4776:4893   */\n    tag_102:\n        /* \"#utility.yul\":4885:4886   */\n      0x00\n        /* \"#utility.yul\":4882:4883   */\n      dup1\n        /* \"#utility.yul\":4875:4887   */\n      revert\n        /* \"#utility.yul\":4913:5466   */\n    tag_103:\n        /* \"#utility.yul\":4971:4979   */\n      0x00\n        /* \"#utility.yul\":4981:4987   */\n      dup1\n        /* \"#utility.yul\":5031:5034   */\n      dup4\n        /* \"#utility.yul\":5024:5028   */\n      0x1f\n        /* \"#utility.yul\":5016:5022   */\n      dup5\n        /* \"#utility.yul\":5012:5029   */\n      add\n        /* \"#utility.yul\":5008:5035   */\n      slt\n        /* \"#utility.yul\":4998:5120   */\n      tag_184\n      jumpi\n        /* \"#utility.yul\":5039:5118   */\n      tag_185\n      tag_100\n      jump\t// in\n    tag_185:\n        /* \"#utility.yul\":4998:5120   */\n    tag_184:\n        /* \"#utility.yul\":5152:5158   */\n      dup3\n        /* \"#utility.yul\":5139:5159   */\n      calldataload\n        /* \"#utility.yul\":5129:5159   */\n      swap1\n      pop\n        /* \"#utility.yul\":5182:5200   */\n      0xffffffffffffffff\n        /* \"#utility.yul\":5174:5180   */\n      dup2\n        /* \"#utility.yul\":5171:5201   */\n      gt\n        /* \"#utility.yul\":5168:5285   */\n      iszero\n      tag_186\n      jumpi\n        /* \"#utility.yul\":5204:5283   */\n      tag_187\n      tag_101\n      jump\t// in\n    tag_187:\n        /* \"#utility.yul\":5168:5285   */\n    tag_186:\n        /* \"#utility.yul\":5318:5322   */\n      0x20\n        /* \"#utility.yul\":5310:5316   */\n      dup4\n        /* \"#utility.yul\":5306:5323   */\n      add\n        /* \"#utility.yul\":5294:5323   */\n      swap2\n      pop\n        /* \"#utility.yul\":5372:5375   */\n      dup4\n        /* \"#utility.yul\":5364:5368   */\n      0x01\n        /* \"#utility.yul\":5356:5362   */\n      dup3\n        /* \"#utility.yul\":5352:5369   */\n      mul\n        /* \"#utility.yul\":5342:5350   */\n      dup4\n        /* \"#utility.yul\":5338:5370   */\n      add\n        /* \"#utility.yul\":5335:5376   */\n      gt\n        /* \"#utility.yul\":5332:5460   */\n      iszero\n      tag_188\n      jumpi\n        /* \"#utility.yul\":5379:5458   */\n      tag_189\n      tag_102\n      jump\t// in\n    tag_189:\n        /* \"#utility.yul\":5332:5460   */\n    tag_188:\n        /* \"#utility.yul\":4913:5466   */\n      swap3\n      pop\n      swap3\n      swap1\n      pop\n      jump\t// out\n        /* \"#utility.yul\":5472:6001   */\n    tag_42:\n        /* \"#utility.yul\":5543:5549   */\n      0x00\n        /* \"#utility.yul\":5551:5557   */\n      dup1\n        /* \"#utility.yul\":5600:5602   */\n      0x20\n        /* \"#utility.yul\":5588:5597   */\n      dup4\n        /* \"#utility.yul\":5579:5586   */\n      dup6\n        /* \"#utility.yul\":5575:5598   */\n      sub\n        /* \"#utility.yul\":5571:5603   */\n      slt\n        /* \"#utility.yul\":5568:5687   */\n      iszero\n      tag_191\n      jumpi\n        /* \"#utility.yul\":5606:5685   */\n      tag_192\n      tag_83\n      jump\t// in\n    tag_192:\n        /* \"#utility.yul\":5568:5687   */\n    tag_191:\n        /* \"#utility.yul\":5754:5755   */\n      0x00\n        /* \"#utility.yul\":5743:5752   */\n      dup4\n        /* \"#utility.yul\":5739:5756   */\n      add\n        /* \"#utility.yul\":5726:5757   */\n      calldataload\n        /* \"#utility.yul\":5784:5802   */\n      0xffffffffffffffff\n        /* \"#utility.yul\":5776:5782   */\n      dup2\n        /* \"#utility.yul\":5773:5803   */\n      gt\n        /* \"#utility.yul\":5770:5887   */\n      iszero\n      tag_193\n      jumpi\n        /* \"#utility.yul\":5806:5885   */\n      tag_194\n      tag_84\n      jump\t// in\n    tag_194:\n        /* \"#utility.yul\":5770:5887   */\n    tag_193:\n        /* \"#utility.yul\":5919:5984   */\n      tag_195\n        /* \"#utility.yul\":5976:5983   */\n      dup6\n        /* \"#utility.yul\":5967:5973   */\n      dup3\n        /* \"#utility.yul\":5956:5965   */\n      dup7\n        /* \"#utility.yul\":5952:5974   */\n      add\n        /* \"#utility.yul\":5919:5984   */\n      tag_103\n      jump\t// in\n    tag_195:\n        /* \"#utility.yul\":5901:5984   */\n      swap3\n      pop\n      swap3\n      pop\n        /* \"#utility.yul\":5697:5994   */\n      pop\n        /* \"#utility.yul\":5472:6001   */\n      swap3\n      pop\n      swap3\n      swap1\n      pop\n      jump\t// out\n        /* \"#utility.yul\":6007:6125   */\n    tag_104:\n        /* \"#utility.yul\":6094:6118   */\n      tag_197\n        /* \"#utility.yul\":6112:6117   */\n      dup2\n        /* \"#utility.yul\":6094:6118   */\n      tag_90\n      jump\t// in\n    tag_197:\n        /* \"#utility.yul\":6089:6092   */\n      dup3\n        /* \"#utility.yul\":6082:6119   */\n      mstore\n        /* \"#utility.yul\":6007:6125   */\n      pop\n      pop\n      jump\t// out\n        /* \"#utility.yul\":6131:6353   */\n    tag_47:\n        /* \"#utility.yul\":6224:6228   */\n      0x00\n        /* \"#utility.yul\":6262:6264   */\n      0x20\n        /* \"#utility.yul\":6251:6260   */\n      dup3\n        /* \"#utility.yul\":6247:6265   */\n      add\n        /* \"#utility.yul\":6239:6265   */\n      swap1\n      pop\n        /* \"#utility.yul\":6275:6346   */\n      tag_199\n        /* \"#utility.yul\":6343:6344   */\n      0x00\n        /* \"#utility.yul\":6332:6341   */\n      dup4\n        /* \"#utility.yul\":6328:6345   */\n      add\n        /* \"#utility.yul\":6319:6325   */\n      dup5\n        /* \"#utility.yul\":6275:6346   */\n      tag_104\n      jump\t// in\n    tag_199:\n        /* \"#utility.yul\":6131:6353   */\n      swap3\n      swap2\n      pop\n      pop\n      jump\t// out\n        /* \"#utility.yul\":6359:6529   */\n    tag_105:\n        /* \"#utility.yul\":6499:6521   */\n      0x596f752063616e277420766f7465207477696365000000000000000000000000\n        /* \"#utility.yul\":6495:6496   */\n      0x00\n        /* \"#utility.yul\":6487:6493   */\n      dup3\n        /* \"#utility.yul\":6483:6497   */\n      add\n        /* \"#utility.yul\":6476:6522   */\n      mstore\n        /* \"#utility.yul\":6359:6529   */\n      pop\n      jump\t// out\n        /* \"#utility.yul\":6535:6901   */\n    tag_106:\n        /* \"#utility.yul\":6677:6680   */\n      0x00\n        /* \"#utility.yul\":6698:6765   */\n      tag_202\n        /* \"#utility.yul\":6762:6764   */\n      0x14\n        /* \"#utility.yul\":6757:6760   */\n      dup4\n        /* \"#utility.yul\":6698:6765   */\n      tag_96\n      jump\t// in\n    tag_202:\n        /* \"#utility.yul\":6691:6765   */\n      swap2\n      pop\n        /* \"#utility.yul\":6774:6867   */\n      tag_203\n        /* \"#utility.yul\":6863:6866   */\n      dup3\n        /* \"#utility.yul\":6774:6867   */\n      tag_105\n      jump\t// in\n    tag_203:\n        /* \"#utility.yul\":6892:6894   */\n      0x20\n        /* \"#utility.yul\":6887:6890   */\n      dup3\n        /* \"#utility.yul\":6883:6895   */\n      add\n        /* \"#utility.yul\":6876:6895   */\n      swap1\n      pop\n        /* \"#utility.yul\":6535:6901   */\n      swap2\n      swap1\n      pop\n      jump\t// out\n        /* \"#utility.yul\":6907:7326   */\n    tag_54:\n        /* \"#utility.yul\":7073:7077   */\n      0x00\n        /* \"#utility.yul\":7111:7113   */\n      0x20\n        /* \"#utility.yul\":7100:7109   */\n      dup3\n        /* \"#utility.yul\":7096:7114   */\n      add\n        /* \"#utility.yul\":7088:7114   */\n      swap1\n      pop\n        /* \"#utility.yul\":7160:7169   */\n      dup2\n        /* \"#utility.yul\":7154:7158   */\n      dup2\n        /* \"#utility.yul\":7150:7170   */\n      sub\n        /* \"#utility.yul\":7146:7147   */\n      0x00\n        /* \"#utility.yul\":7135:7144   */\n      dup4\n        /* \"#utility.yul\":7131:7148   */\n      add\n        /* \"#utility.yul\":7124:7171   */\n      mstore\n        /* \"#utility.yul\":7188:7319   */\n      tag_205\n        /* \"#utility.yul\":7314:7318   */\n      dup2\n        /* \"#utility.yul\":7188:7319   */\n      tag_106\n      jump\t// in\n    tag_205:\n        /* \"#utility.yul\":7180:7319   */\n      swap1\n      pop\n        /* \"#utility.yul\":6907:7326   */\n      swap2\n      swap1\n      pop\n      jump\t// out\n        /* \"#utility.yul\":7332:7511   */\n    tag_107:\n        /* \"#utility.yul\":7472:7503   */\n      0x537563682063616e64696461746520646f6573206e6f74206578697374000000\n        /* \"#utility.yul\":7468:7469   */\n      0x00\n        /* \"#utility.yul\":7460:7466   */\n      dup3\n        /* \"#utility.yul\":7456:7470   */\n      add\n        /* \"#utility.yul\":7449:7504   */\n      mstore\n        /* \"#utility.yul\":7332:7511   */\n      pop\n      jump\t// out\n        /* \"#utility.yul\":7517:7883   */\n    tag_108:\n        /* \"#utility.yul\":7659:7662   */\n      0x00\n        /* \"#utility.yul\":7680:7747   */\n      tag_208\n        /* \"#utility.yul\":7744:7746   */\n      0x1d\n        /* \"#utility.yul\":7739:7742   */\n      dup4\n        /* \"#utility.yul\":7680:7747   */\n      tag_96\n      jump\t// in\n    tag_208:\n        /* \"#utility.yul\":7673:7747   */\n      swap2\n      pop\n        /* \"#utility.yul\":7756:7849   */\n      tag_209\n        /* \"#utility.yul\":7845:7848   */\n      dup3\n        /* \"#utility.yul\":7756:7849   */\n      tag_107\n      jump\t// in\n    tag_209:\n        /* \"#utility.yul\":7874:7876   */\n      0x20\n        /* \"#utility.yul\":7869:7872   */\n      dup3\n        /* \"#utility.yul\":7865:7877   */\n      add\n        /* \"#utility.yul\":7858:7877   */\n      swap1\n      pop\n        /* \"#utility.yul\":7517:7883   */\n      swap2\n      swap1\n      pop\n      jump\t// out\n        /* \"#utility.yul\":7889:8308   */\n    tag_57:\n        /* \"#utility.yul\":8055:8059   */\n      0x00\n        /* \"#utility.yul\":8093:8095   */\n      0x20\n        /* \"#utility.yul\":8082:8091   */\n      dup3\n        /* \"#utility.yul\":8078:8096   */\n      add\n        /* \"#utility.yul\":8070:8096   */\n      swap1\n      pop\n        /* \"#utility.yul\":8142:8151   */\n      dup2\n        /* \"#utility.yul\":8136:8140   */\n      dup2\n        /* \"#utility.yul\":8132:8152   */\n      sub\n        /* \"#utility.yul\":8128:8129   */\n      0x00\n        /* \"#utility.yul\":8117:8126   */\n      dup4\n        /* \"#utility.yul\":8113:8130   */\n      add\n        /* \"#utility.yul\":8106:8153   */\n      mstore\n        /* \"#utility.yul\":8170:8301   */\n      tag_211\n        /* \"#utility.yul\":8296:8300   */\n      dup2\n        /* \"#utility.yul\":8170:8301   */\n      tag_108\n      jump\t// in\n    tag_211:\n        /* \"#utility.yul\":8162:8301   */\n      swap1\n      pop\n        /* \"#utility.yul\":7889:8308   */\n      swap2\n      swap1\n      pop\n      jump\t// out\n        /* \"#utility.yul\":8314:8494   */\n    tag_109:\n        /* \"#utility.yul\":8362:8439   */\n      0x4e487b7100000000000000000000000000000000000000000000000000000000\n        /* \"#utility.yul\":8359:8360   */\n      0x00\n        /* \"#utility.yul\":8352:8440   */\n      mstore\n        /* \"#utility.yul\":8459:8463   */\n      0x11\n        /* \"#utility.yul\":8456:8457   */\n      0x04\n        /* \"#utility.yul\":8449:8464   */\n      mstore\n        /* \"#utility.yul\":8483:8487   */\n      0x24\n        /* \"#utility.yul\":8480:8481   */\n      0x00\n        /* \"#utility.yul\":8473:8488   */\n      revert\n        /* \"#utility.yul\":8500:8733   */\n    tag_59:\n        /* \"#utility.yul\":8539:8542   */\n      0x00\n        /* \"#utility.yul\":8562:8586   */\n      tag_214\n        /* \"#utility.yul\":8580:8585   */\n      dup3\n        /* \"#utility.yul\":8562:8586   */\n      tag_85\n      jump\t// in\n    tag_214:\n        /* \"#utility.yul\":8553:8586   */\n      swap2\n      pop\n        /* \"#utility.yul\":8608:8674   */\n      0xffffffffffffffffffffffffffffffffffffffffffffffffffffffffffffffff\n        /* \"#utility.yul\":8601:8606   */\n      dup3\n        /* \"#utility.yul\":8598:8675   */\n      sub\n        /* \"#utility.yul\":8595:8698   */\n      tag_215\n      jumpi\n        /* \"#utility.yul\":8678:8696   */\n      tag_216\n      tag_109\n      jump\t// in\n    tag_216:\n        /* \"#utility.yul\":8595:8698   */\n    tag_215:\n        /* \"#utility.yul\":8725:8726   */\n      0x01\n        /* \"#utility.yul\":8718:8723   */\n      dup3\n        /* \"#utility.yul\":8714:8727   */\n      add\n        /* \"#utility.yul\":8707:8727   */\n      swap1\n      pop\n        /* \"#utility.yul\":8500:8733   */\n      swap2\n      swap1\n      pop\n      jump\t// out\n        /* \"#utility.yul\":8739:8919   */\n    tag_110:\n        /* \"#utility.yul\":8787:8864   */\n      0x4e487b7100000000000000000000000000000000000000000000000000000000\n        /* \"#utility.yul\":8784:8785   */\n      0x00\n        /* \"#utility.yul\":8777:8865   */\n      mstore\n        /* \"#utility.yul\":8884:8888   */\n      0x22\n        /* \"#utility.yul\":8881:8882   */\n      0x04\n        /* \"#utility.yul\":8874:8889   */\n      mstore\n        /* \"#utility.yul\":8908:8912   */\n      0x24\n        /* \"#utility.yul\":8905:8906   */\n      0x00\n        /* \"#utility.yul\":8898:8913   */\n      revert\n        /* \"#utility.yul\":8925:9245   */\n    tag_62:\n        /* \"#utility.yul\":8969:8975   */\n      0x00\n        /* \"#utility.yul\":9006:9007   */\n      0x02\n        /* \"#utility.yul\":9000:9004   */\n      dup3\n        /* \"#utility.yul\":8996:9008   */\n      div\n        /* \"#utility.yul\":8986:9008   */\n      swap1\n      pop\n        /* \"#utility.yul\":9053:9054   */\n      0x01\n        /* \"#utility.yul\":9047:9051   */\n      dup3\n        /* \"#utility.yul\":9043:9055   */\n      and\n        /* \"#utility.yul\":9074:9092   */\n      dup1\n        /* \"#utility.yul\":9064:9145   */\n      tag_219\n      jumpi\n        /* \"#utility.yul\":9130:9134   */\n      0x7f\n        /* \"#utility.yul\":9122:9128   */\n      dup3\n        /* \"#utility.yul\":9118:9135   */\n      and\n        /* \"#utility.yul\":9108:9135   */\n      swap2\n      pop\n        /* \"#utility.yul\":9064:9145   */\n    tag_219:\n        /* \"#utility.yul\":9192:9194   */\n      0x20\n        /* \"#utility.yul\":9184:9190   */\n      dup3\n        /* \"#utility.yul\":9181:9195   */\n      lt\n        /* \"#utility.yul\":9161:9179   */\n      dup2\n        /* \"#utility.yul\":9158:9196   */\n      sub\n        /* \"#utility.yul\":9155:9239   */\n      tag_220\n      jumpi\n        /* \"#utility.yul\":9211:9229   */\n      tag_221\n      tag_110\n      jump\t// in\n    tag_221:\n        /* \"#utility.yul\":9155:9239   */\n    tag_220:\n        /* \"#utility.yul\":8976:9245   */\n      pop\n        /* \"#utility.yul\":8925:9245   */\n      swap2\n      swap1\n      pop\n      jump\t// out\n        /* \"#utility.yul\":9251:9422   */\n    tag_111:\n        /* \"#utility.yul\":9391:9414   */\n      0x596f7520646f6e27742068617665206163636573730000000000000000000000\n        /* \"#utility.yul\":9387:9388   */\n      0x00\n        /* \"#utility.yul\":9379:9385   */\n      dup3\n        /* \"#utility.yul\":9375:9389   */\n      add\n        /* \"#utility.yul\":9368:9415   */\n      mstore\n        /* \"#utility.yul\":9251:9422   */\n      pop\n      jump\t// out\n        /* \"#utility.yul\":9428:9794   */\n    tag_112:\n        /* \"#utility.yul\":9570:9573   */\n      0x00\n        /* \"#utility.yul\":9591:9658   */\n      tag_224\n        /* \"#utility.yul\":9655:9657   */\n      0x15\n        /* \"#utility.yul\":9650:9653   */\n      dup4\n        /* \"#utility.yul\":9591:9658   */\n      tag_96\n      jump\t// in\n    tag_224:\n        /* \"#utility.yul\":9584:9658   */\n      swap2\n      pop\n        /* \"#utility.yul\":9667:9760   */\n      tag_225\n        /* \"#utility.yul\":9756:9759   */\n      dup3\n        /* \"#utility.yul\":9667:9760   */\n      tag_111\n      jump\t// in\n    tag_225:\n        /* \"#utility.yul\":9785:9787   */\n      0x20\n        /* \"#utility.yul\":9780:9783   */\n      dup3\n        /* \"#utility.yul\":9776:9788   */\n      add\n        /* \"#utility.yul\":9769:9788   */\n      swap1\n      pop\n        /* \"#utility.yul\":9428:9794   */\n      swap2\n      swap1\n      pop\n      jump\t// out\n        /* \"#utility.yul\":9800:10219   */\n    tag_76:\n        /* \"#utility.yul\":9966:9970   */\n      0x00\n        /* \"#utility.yul\":10004:10006   */\n      0x20\n        /* \"#utility.yul\":9993:10002   */\n      dup3\n        /* \"#utility.yul\":9989:10007   */\n      add\n        /* \"#utility.yul\":9981:10007   */\n      swap1\n      pop\n        /* \"#utility.yul\":10053:10062   */\n      dup2\n        /* \"#utility.yul\":10047:10051   */\n      dup2\n        /* \"#utility.yul\":10043:10063   */\n      sub\n        /* \"#utility.yul\":10039:10040   */\n      0x00\n        /* \"#utility.yul\":10028:10037   */\n      dup4\n        /* \"#utility.yul\":10024:10041   */\n      add\n        /* \"#utility.yul\":10017:10064   */\n      mstore\n        /* \"#utility.yul\":10081:10212   */\n      tag_227\n        /* \"#utility.yul\":10207:10211   */\n      dup2\n        /* \"#utility.yul\":10081:10212   */\n      tag_112\n      jump\t// in\n    tag_227:\n        /* \"#utility.yul\":10073:10212   */\n      swap1\n      pop\n        /* \"#utility.yul\":9800:10219   */\n      swap2\n      swap1\n      pop\n      jump\t// out\n        /* \"#utility.yul\":10225:10405   */\n    tag_113:\n        /* \"#utility.yul\":10273:10350   */\n      0x4e487b7100000000000000000000000000000000000000000000000000000000\n        /* \"#utility.yul\":10270:10271   */\n      0x00\n        /* \"#utility.yul\":10263:10351   */\n      mstore\n        /* \"#utility.yul\":10370:10374   */\n      0x41\n        /* \"#utility.yul\":10367:10368   */\n      0x04\n        /* \"#utility.yul\":10360:10375   */\n      mstore\n        /* \"#utility.yul\":10394:10398   */\n      0x24\n        /* \"#utility.yul\":10391:10392   */\n      0x00\n        /* \"#utility.yul\":10384:10399   */\n      revert\n        /* \"#utility.yul\":10411:10552   */\n    tag_114:\n        /* \"#utility.yul\":10460:10464   */\n      0x00\n        /* \"#utility.yul\":10483:10486   */\n      dup2\n        /* \"#utility.yul\":10475:10486   */\n      swap1\n      pop\n        /* \"#utility.yul\":10506:10509   */\n      dup2\n        /* \"#utility.yul\":10503:10504   */\n      0x00\n        /* \"#utility.yul\":10496:10510   */\n      mstore\n        /* \"#utility.yul\":10540:10544   */\n      0x20\n        /* \"#utility.yul\":10537:10538   */\n      0x00\n        /* \"#utility.yul\":10527:10545   */\n      keccak256\n        /* \"#utility.yul\":10519:10545   */\n      swap1\n      pop\n        /* \"#utility.yul\":10411:10552   */\n      swap2\n      swap1\n      pop\n      jump\t// out\n        /* \"#utility.yul\":10558:10651   */\n    tag_115:\n        /* \"#utility.yul\":10595:10601   */\n      0x00\n        /* \"#utility.yul\":10642:10644   */\n      0x20\n        /* \"#utility.yul\":10637:10639   */\n      0x1f\n        /* \"#utility.yul\":10630:10635   */\n      dup4\n        /* \"#utility.yul\":10626:10640   */\n      add\n        /* \"#utility.yul\":10622:10645   */\n      div\n        /* \"#utility.yul\":10612:10645   */\n      swap1\n      pop\n        /* \"#utility.yul\":10558:10651   */\n      swap2\n      swap1\n      pop\n      jump\t// out\n        /* \"#utility.yul\":10657:10764   */\n    tag_116:\n        /* \"#utility.yul\":10701:10709   */\n      0x00\n        /* \"#utility.yul\":10751:10756   */\n      dup3\n        /* \"#utility.yul\":10745:10749   */\n      dup3\n        /* \"#utility.yul\":10741:10757   */\n      shl\n        /* \"#utility.yul\":10720:10757   */\n      swap1\n      pop\n        /* \"#utility.yul\":10657:10764   */\n      swap3\n      swap2\n      pop\n      pop\n      jump\t// out\n        /* \"#utility.yul\":10770:11163   */\n    tag_117:\n        /* \"#utility.yul\":10839:10845   */\n      0x00\n        /* \"#utility.yul\":10889:10890   */\n      0x08\n        /* \"#utility.yul\":10877:10887   */\n      dup4\n        /* \"#utility.yul\":10873:10891   */\n      mul\n        /* \"#utility.yul\":10912:11009   */\n      tag_233\n        /* \"#utility.yul\":10942:11008   */\n      0xffffffffffffffffffffffffffffffffffffffffffffffffffffffffffffffff\n        /* \"#utility.yul\":10931:10940   */\n      dup3\n        /* \"#utility.yul\":10912:11009   */\n      tag_116\n      jump\t// in\n    tag_233:\n        /* \"#utility.yul\":11030:11069   */\n      tag_234\n        /* \"#utility.yul\":11060:11068   */\n      dup7\n        /* \"#utility.yul\":11049:11058   */\n      dup4\n        /* \"#utility.yul\":11030:11069   */\n      tag_116\n      jump\t// in\n    tag_234:\n        /* \"#utility.yul\":11018:11069   */\n      swap6\n      pop\n        /* \"#utility.yul\":11102:11106   */\n      dup1\n        /* \"#utility.yul\":11098:11107   */\n      not\n        /* \"#utility.yul\":11091:11096   */\n      dup5\n        /* \"#utility.yul\":11087:11108   */\n      and\n        /* \"#utility.yul\":11078:11108   */\n      swap4\n      pop\n        /* \"#utility.yul\":11151:11155   */\n      dup1\n        /* \"#utility.yul\":11141:11149   */\n      dup7\n        /* \"#utility.yul\":11137:11156   */\n      and\n        /* \"#utility.yul\":11130:11135   */\n      dup5\n        /* \"#utility.yul\":11127:11157   */\n      or\n        /* \"#utility.yul\":11117:11157   */\n      swap3\n      pop\n        /* \"#utility.yul\":10846:11163   */\n      pop\n      pop\n        /* \"#utility.yul\":10770:11163   */\n      swap4\n      swap3\n      pop\n      pop\n      pop\n      jump\t// out\n        /* \"#utility.yul\":11169:11229   */\n    tag_118:\n        /* \"#utility.yul\":11197:11200   */\n      0x00\n        /* \"#utility.yul\":11218:11223   */\n      dup2\n        /* \"#utility.yul\":11211:11223   */\n      swap1\n      pop\n        /* \"#utility.yul\":11169:11229   */\n      swap2\n      swap1\n      pop\n      jump\t// out\n        /* \"#utility.yul\":11235:11377   */\n    tag_119:\n        /* \"#utility.yul\":11285:11294   */\n      0x00\n        /* \"#utility.yul\":11318:11371   */\n      tag_237\n        /* \"#utility.yul\":11336:11370   */\n      tag_238\n        /* \"#utility.yul\":11345:11369   */\n      tag_239\n        /* \"#utility.yul\":11363:11368   */\n      dup5\n        /* \"#utility.yul\":11345:11369   */\n      tag_85\n      jump\t// in\n    tag_239:\n        /* \"#utility.yul\":11336:11370   */\n      tag_118\n      jump\t// in\n    tag_238:\n        /* \"#utility.yul\":11318:11371   */\n      tag_85\n      jump\t// in\n    tag_237:\n        /* \"#utility.yul\":11305:11371   */\n      swap1\n      pop\n        /* \"#utility.yul\":11235:11377   */\n      swap2\n      swap1\n      pop\n      jump\t// out\n        /* \"#utility.yul\":11383:11458   */\n    tag_120:\n        /* \"#utility.yul\":11426:11429   */\n      0x00\n        /* \"#utility.yul\":11447:11452   */\n      dup2\n        /* \"#utility.yul\":11440:11452   */\n      swap1\n      pop\n        /* \"#utility.yul\":11383:11458   */\n      swap2\n      swap1\n      pop\n      jump\t// out\n        /* \"#utility.yul\":11464:11733   */\n    tag_121:\n        /* \"#utility.yul\":11574:11613   */\n      tag_242\n        /* \"#utility.yul\":11605:11612   */\n      dup4\n        /* \"#utility.yul\":11574:11613   */\n      tag_119\n      jump\t// in\n    tag_242:\n        /* \"#utility.yul\":11635:11726   */\n      tag_243\n        /* \"#utility.yul\":11684:11725   */\n      tag_244\n        /* \"#utility.yul\":11708:11724   */\n      dup3\n        /* \"#utility.yul\":11684:11725   */\n      tag_120\n      jump\t// in\n    tag_244:\n        /* \"#utility.yul\":11676:11682   */\n      dup5\n        /* \"#utility.yul\":11669:11673   */\n      dup5\n        /* \"#utility.yul\":11663:11674   */\n      sload\n        /* \"#utility.yul\":11635:11726   */\n      tag_117\n      jump\t// in\n    tag_243:\n        /* \"#utility.yul\":11629:11633   */\n      dup3\n        /* \"#utility.yul\":11622:11727   */\n      sstore\n        /* \"#utility.yul\":11540:11733   */\n      pop\n        /* \"#utility.yul\":11464:11733   */\n      pop\n      pop\n      pop\n      jump\t// out\n        /* \"#utility.yul\":11739:11812   */\n    tag_122:\n        /* \"#utility.yul\":11784:11787   */\n      0x00\n        /* \"#utility.yul\":11739:11812   */\n      swap1\n      jump\t// out\n        /* \"#utility.yul\":11818:12007   */\n    tag_123:\n        /* \"#utility.yul\":11895:11927   */\n      tag_247\n      tag_122\n      jump\t// in\n    tag_247:\n        /* \"#utility.yul\":11936:12001   */\n      tag_248\n        /* \"#utility.yul\":11994:12000   */\n      dup2\n        /* \"#utility.yul\":11986:11992   */\n      dup5\n        /* \"#utility.yul\":11980:11984   */\n      dup5\n        /* \"#utility.yul\":11936:12001   */\n      tag_121\n      jump\t// in\n    tag_248:\n        /* \"#utility.yul\":11871:12007   */\n      pop\n        /* \"#utility.yul\":11818:12007   */\n      pop\n      pop\n      jump\t// out\n        /* \"#utility.yul\":12013:12199   */\n    tag_124:\n        /* \"#utility.yul\":12073:12193   */\n    tag_250:\n        /* \"#utility.yul\":12090:12093   */\n      dup2\n        /* \"#utility.yul\":12083:12088   */\n      dup2\n        /* \"#utility.yul\":12080:12094   */\n      lt\n        /* \"#utility.yul\":12073:12193   */\n      iszero\n      tag_252\n      jumpi\n        /* \"#utility.yul\":12144:12183   */\n      tag_253\n        /* \"#utility.yul\":12181:12182   */\n      0x00\n        /* \"#utility.yul\":12174:12179   */\n      dup3\n        /* \"#utility.yul\":12144:12183   */\n      tag_123\n      jump\t// in\n    tag_253:\n        /* \"#utility.yul\":12117:12118   */\n      0x01\n        /* \"#utility.yul\":12110:12115   */\n      dup2\n        /* \"#utility.yul\":12106:12119   */\n      add\n        /* \"#utility.yul\":12097:12119   */\n      swap1\n      pop\n        /* \"#utility.yul\":12073:12193   */\n      jump(tag_250)\n    tag_252:\n        /* \"#utility.yul\":12013:12199   */\n      pop\n      pop\n      jump\t// out\n        /* \"#utility.yul\":12205:12748   */\n    tag_125:\n        /* \"#utility.yul\":12306:12308   */\n      0x1f\n        /* \"#utility.yul\":12301:12304   */\n      dup3\n        /* \"#utility.yul\":12298:12309   */\n      gt\n        /* \"#utility.yul\":12295:12741   */\n      iszero\n      tag_255\n      jumpi\n        /* \"#utility.yul\":12340:12378   */\n      tag_256\n        /* \"#utility.yul\":12372:12377   */\n      dup2\n        /* \"#utility.yul\":12340:12378   */\n      tag_114\n      jump\t// in\n    tag_256:\n        /* \"#utility.yul\":12424:12453   */\n      tag_257\n        /* \"#utility.yul\":12442:12452   */\n      dup5\n        /* \"#utility.yul\":12424:12453   */\n      tag_115\n      jump\t// in\n    tag_257:\n        /* \"#utility.yul\":12414:12422   */\n      dup2\n        /* \"#utility.yul\":12410:12454   */\n      add\n        /* \"#utility.yul\":12607:12609   */\n      0x20\n        /* \"#utility.yul\":12595:12605   */\n      dup6\n        /* \"#utility.yul\":12592:12610   */\n      lt\n        /* \"#utility.yul\":12589:12638   */\n      iszero\n      tag_258\n      jumpi\n        /* \"#utility.yul\":12628:12636   */\n      dup2\n        /* \"#utility.yul\":12613:12636   */\n      swap1\n      pop\n        /* \"#utility.yul\":12589:12638   */\n    tag_258:\n        /* \"#utility.yul\":12651:12731   */\n      tag_259\n        /* \"#utility.yul\":12707:12729   */\n      tag_260\n        /* \"#utility.yul\":12725:12728   */\n      dup6\n        /* \"#utility.yul\":12707:12729   */\n      tag_115\n      jump\t// in\n    tag_260:\n        /* \"#utility.yul\":12697:12705   */\n      dup4\n        /* \"#utility.yul\":12693:12730   */\n      add\n        /* \"#utility.yul\":12680:12691   */\n      dup3\n        /* \"#utility.yul\":12651:12731   */\n      tag_124\n      jump\t// in\n    tag_259:\n        /* \"#utility.yul\":12310:12741   */\n      pop\n      pop\n        /* \"#utility.yul\":12295:12741   */\n    tag_255:\n        /* \"#utility.yul\":12205:12748   */\n      pop\n      pop\n      pop\n      jump\t// out\n        /* \"#utility.yul\":12754:12871   */\n    tag_126:\n        /* \"#utility.yul\":12808:12816   */\n      0x00\n        /* \"#utility.yul\":12858:12863   */\n      dup3\n        /* \"#utility.yul\":12852:12856   */\n      dup3\n        /* \"#utility.yul\":12848:12864   */\n      shr\n        /* \"#utility.yul\":12827:12864   */\n      swap1\n      pop\n        /* \"#utility.yul\":12754:12871   */\n      swap3\n      swap2\n      pop\n      pop\n      jump\t// out\n        /* \"#utility.yul\":12877:13046   */\n    tag_127:\n        /* \"#utility.yul\":12921:12927   */\n      0x00\n        /* \"#utility.yul\":12954:13005   */\n      tag_263\n        /* \"#utility.yul\":13002:13003   */\n      0x00\n        /* \"#utility.yul\":12998:13004   */\n      not\n        /* \"#utility.yul\":12990:12995   */\n      dup5\n        /* \"#utility.yul\":12987:12988   */\n      0x08\n        /* \"#utility.yul\":12983:12996   */\n      mul\n        /* \"#utility.yul\":12954:13005   */\n      tag_126\n      jump\t// in\n    tag_263:\n        /* \"#utility.yul\":12950:13006   */\n      not\n        /* \"#utility.yul\":13035:13039   */\n      dup1\n        /* \"#utility.yul\":13029:13033   */\n      dup4\n        /* \"#utility.yul\":13025:13040   */\n      and\n        /* \"#utility.yul\":13015:13040   */\n      swap2\n      pop\n        /* \"#utility.yul\":12928:13046   */\n      pop\n        /* \"#utility.yul\":12877:13046   */\n      swap3\n      swap2\n      pop\n      pop\n      jump\t// out\n        /* \"#utility.yul\":13051:13346   */\n    tag_128:\n        /* \"#utility.yul\":13127:13131   */\n      0x00\n        /* \"#utility.yul\":13273:13302   */\n      tag_265\n        /* \"#utility.yul\":13298:13301   */\n      dup4\n        /* \"#utility.yul\":13292:13296   */\n      dup4\n        /* \"#utility.yul\":13273:13302   */\n      tag_127\n      jump\t// in\n    tag_265:\n        /* \"#utility.yul\":13265:13302   */\n      swap2\n      pop\n        /* \"#utility.yul\":13335:13338   */\n      dup3\n        /* \"#utility.yul\":13332:13333   */\n      0x02\n        /* \"#utility.yul\":13328:13339   */\n      mul\n        /* \"#utility.yul\":13322:13326   */\n      dup3\n        /* \"#utility.yul\":13319:13340   */\n      or\n        /* \"#utility.yul\":13311:13340   */\n      swap1\n      pop\n        /* \"#utility.yul\":13051:13346   */\n      swap3\n      swap2\n      pop\n      pop\n      jump\t// out\n        /* \"#utility.yul\":13351:14746   */\n    tag_79:\n        /* \"#utility.yul\":13468:13505   */\n      tag_267\n        /* \"#utility.yul\":13501:13504   */\n      dup3\n        /* \"#utility.yul\":13468:13505   */\n      tag_95\n      jump\t// in\n    tag_267:\n        /* \"#utility.yul\":13570:13588   */\n      0xffffffffffffffff\n        /* \"#utility.yul\":13562:13568   */\n      dup2\n        /* \"#utility.yul\":13559:13589   */\n      gt\n        /* \"#utility.yul\":13556:13612   */\n      iszero\n      tag_268\n      jumpi\n        /* \"#utility.yul\":13592:13610   */\n      tag_269\n      tag_113\n      jump\t// in\n    tag_269:\n        /* \"#utility.yul\":13556:13612   */\n    tag_268:\n        /* \"#utility.yul\":13636:13674   */\n      tag_270\n        /* \"#utility.yul\":13668:13672   */\n      dup3\n        /* \"#utility.yul\":13662:13673   */\n      sload\n        /* \"#utility.yul\":13636:13674   */\n      tag_62\n      jump\t// in\n    tag_270:\n        /* \"#utility.yul\":13721:13788   */\n      tag_271\n        /* \"#utility.yul\":13781:13787   */\n      dup3\n        /* \"#utility.yul\":13773:13779   */\n      dup3\n        /* \"#utility.yul\":13767:13771   */\n      dup6\n        /* \"#utility.yul\":13721:13788   */\n      tag_125\n      jump\t// in\n    tag_271:\n        /* \"#utility.yul\":13815:13816   */\n      0x00\n        /* \"#utility.yul\":13839:13843   */\n      0x20\n        /* \"#utility.yul\":13826:13843   */\n      swap1\n      pop\n        /* \"#utility.yul\":13871:13873   */\n      0x1f\n        /* \"#utility.yul\":13863:13869   */\n      dup4\n        /* \"#utility.yul\":13860:13874   */\n      gt\n        /* \"#utility.yul\":13888:13889   */\n      0x01\n        /* \"#utility.yul\":13883:14501   */\n      dup2\n      eq\n      tag_273\n      jumpi\n        /* \"#utility.yul\":14545:14546   */\n      0x00\n        /* \"#utility.yul\":14562:14568   */\n      dup5\n        /* \"#utility.yul\":14559:14636   */\n      iszero\n      tag_274\n      jumpi\n        /* \"#utility.yul\":14611:14620   */\n      dup3\n        /* \"#utility.yul\":14606:14609   */\n      dup8\n        /* \"#utility.yul\":14602:14621   */\n      add\n        /* \"#utility.yul\":14596:14622   */\n      mload\n        /* \"#utility.yul\":14587:14622   */\n      swap1\n      pop\n        /* \"#utility.yul\":14559:14636   */\n    tag_274:\n        /* \"#utility.yul\":14662:14729   */\n      tag_275\n        /* \"#utility.yul\":14722:14728   */\n      dup6\n        /* \"#utility.yul\":14715:14720   */\n      dup3\n        /* \"#utility.yul\":14662:14729   */\n      tag_128\n      jump\t// in\n    tag_275:\n        /* \"#utility.yul\":14656:14660   */\n      dup7\n        /* \"#utility.yul\":14649:14730   */\n      sstore\n        /* \"#utility.yul\":14518:14740   */\n      pop\n        /* \"#utility.yul\":13853:14740   */\n      jump(tag_272)\n        /* \"#utility.yul\":13883:14501   */\n    tag_273:\n        /* \"#utility.yul\":13935:13939   */\n      0x1f\n        /* \"#utility.yul\":13931:13940   */\n      not\n        /* \"#utility.yul\":13923:13929   */\n      dup5\n        /* \"#utility.yul\":13919:13941   */\n      and\n        /* \"#utility.yul\":13969:14006   */\n      tag_276\n        /* \"#utility.yul\":14001:14005   */\n      dup7\n        /* \"#utility.yul\":13969:14006   */\n      tag_114\n      jump\t// in\n    tag_276:\n        /* \"#utility.yul\":14028:14029   */\n      0x00\n        /* \"#utility.yul\":14042:14250   */\n    tag_277:\n        /* \"#utility.yul\":14056:14063   */\n      dup3\n        /* \"#utility.yul\":14053:14054   */\n      dup2\n        /* \"#utility.yul\":14050:14064   */\n      lt\n        /* \"#utility.yul\":14042:14250   */\n      iszero\n      tag_279\n      jumpi\n        /* \"#utility.yul\":14135:14144   */\n      dup5\n        /* \"#utility.yul\":14130:14133   */\n      dup10\n        /* \"#utility.yul\":14126:14145   */\n      add\n        /* \"#utility.yul\":14120:14146   */\n      mload\n        /* \"#utility.yul\":14112:14118   */\n      dup3\n        /* \"#utility.yul\":14105:14147   */\n      sstore\n        /* \"#utility.yul\":14186:14187   */\n      0x01\n        /* \"#utility.yul\":14178:14184   */\n      dup3\n        /* \"#utility.yul\":14174:14188   */\n      add\n        /* \"#utility.yul\":14164:14188   */\n      swap2\n      pop\n        /* \"#utility.yul\":14233:14235   */\n      0x20\n        /* \"#utility.yul\":14222:14231   */\n      dup6\n        /* \"#utility.yul\":14218:14236   */\n      add\n        /* \"#utility.yul\":14205:14236   */\n      swap5\n      pop\n        /* \"#utility.yul\":14079:14083   */\n      0x20\n        /* \"#utility.yul\":14076:14077   */\n      dup2\n        /* \"#utility.yul\":14072:14084   */\n      add\n        /* \"#utility.yul\":14067:14084   */\n      swap1\n      pop\n        /* \"#utility.yul\":14042:14250   */\n      jump(tag_277)\n    tag_279:\n        /* \"#utility.yul\":14278:14284   */\n      dup7\n        /* \"#utility.yul\":14269:14276   */\n      dup4\n        /* \"#utility.yul\":14266:14285   */\n      lt\n        /* \"#utility.yul\":14263:14442   */\n      iszero\n      tag_280\n      jumpi\n        /* \"#utility.yul\":14336:14345   */\n      dup5\n        /* \"#utility.yul\":14331:14334   */\n      dup10\n        /* \"#utility.yul\":14327:14346   */\n      add\n        /* \"#utility.yul\":14321:14347   */\n      mload\n        /* \"#utility.yul\":14379:14427   */\n      tag_281\n        /* \"#utility.yul\":14421:14425   */\n      0x1f\n        /* \"#utility.yul\":14413:14419   */\n      dup10\n        /* \"#utility.yul\":14409:14426   */\n      and\n        /* \"#utility.yul\":14398:14407   */\n      dup3\n        /* \"#utility.yul\":14379:14427   */\n      tag_127\n      jump\t// in\n    tag_281:\n        /* \"#utility.yul\":14371:14377   */\n      dup4\n        /* \"#utility.yul\":14364:14428   */\n      sstore\n        /* \"#utility.yul\":14286:14442   */\n      pop\n        /* \"#utility.yul\":14263:14442   */\n    tag_280:\n        /* \"#utility.yul\":14488:14489   */\n      0x01\n        /* \"#utility.yul\":14484:14485   */\n      0x02\n        /* \"#utility.yul\":14476:14482   */\n      dup9\n        /* \"#utility.yul\":14472:14486   */\n      mul\n        /* \"#utility.yul\":14468:14490   */\n      add\n        /* \"#utility.yul\":14462:14466   */\n      dup9\n        /* \"#utility.yul\":14455:14491   */\n      sstore\n        /* \"#utility.yul\":13890:14501   */\n      pop\n      pop\n      pop\n        /* \"#utility.yul\":13853:14740   */\n    tag_272:\n      pop\n        /* \"#utility.yul\":13443:14746   */\n      pop\n      pop\n      pop\n        /* \"#utility.yul\":13351:14746   */\n      pop\n      pop\n      jump\t// out\n\n    auxdata: 0xa2646970667358221220d32edc4a966e64d11e8d093f184b70eac39bdc2fae9306dab22cc1b03f0fb77d64736f6c634300081a0033\n}\n",
				"bytecode": {
					"linkReferences": {},
					"object": "6080604052348015600e575f80fd5b50335f806101000a81548173ffffffffffffffffffffffffffffffffffffffff021916908373ffffffffffffffffffffffffffffffffffffffff160217905550610e2f8061005b5f395ff3fe608060405234801561000f575f80fd5b5060043610610091575f3560e01c806335b8e8201161006457806335b8e820146101315780633866965c14610162578063462e91ec146101805780638da5cb5b1461019c578063af640d0f146101ba57610091565b80630121b93f146100955780630deb56ab146100b1578063254fe7d7146100cf5780633477ee2e146100ff575b5f80fd5b6100af60048036038101906100aa919061069e565b6101d8565b005b6100b9610327565b6040516100c691906106d8565b60405180910390f35b6100e960048036038101906100e4919061074b565b610330565b6040516100f69190610790565b60405180910390f35b6101196004803603810190610114919061069e565b61034d565b60405161012893929190610819565b60405180910390f35b61014b6004803603810190610146919061069e565b6103f9565b604051610159929190610855565b60405180910390f35b61016a6104d2565b60405161017791906106d8565b60405180910390f35b61019a600480360381019061019591906108e4565b6104d8565b005b6101a461063a565b6040516101b1919061093e565b60405180910390f35b6101c261065d565b6040516101cf91906106d8565b60405180910390f35b60045f3373ffffffffffffffffffffffffffffffffffffffff1673ffffffffffffffffffffffffffffffffffffffff1681526020019081526020015f205f9054906101000a900460ff1615610262576040517f08c379a0000000000000000000000000000000000000000000000000000000008152600401610259906109a1565b60405180910390fd5b60025481106102a6576040517f08c379a000000000000000000000000000000000000000000000000000000000815260040161029d90610a09565b60405180910390fd5b60035f8281526020019081526020015f206002015f8154809291906102ca90610a54565b9190505550600160045f3373ffffffffffffffffffffffffffffffffffffffff1673ffffffffffffffffffffffffffffffffffffffff1681526020019081526020015f205f6101000a81548160ff02191690831515021790555050565b5f600254905090565b6004602052805f5260405f205f915054906101000a900460ff1681565b6003602052805f5260405f205f91509050805f01549080600101805461037290610ac8565b80601f016020809104026020016040519081016040528092919081815260200182805461039e90610ac8565b80156103e95780601f106103c0576101008083540402835291602001916103e9565b820191905f5260205f20905b8154815290600101906020018083116103cc57829003601f168201915b5050505050908060020154905083565b60605f8060035f8581526020019081526020015f206040518060600160405290815f820154815260200160018201805461043290610ac8565b80601f016020809104026020016040519081016040528092919081815260200182805461045e90610ac8565b80156104a95780601f10610480576101008083540402835291602001916104a9565b820191905f5260205f20905b81548152906001019060200180831161048c57829003601f168201915b505050505081526020016002820154815250509050806020015181604001519250925050915091565b60025481565b3373ffffffffffffffffffffffffffffffffffffffff165f8054906101000a900473ffffffffffffffffffffffffffffffffffffffff1673ffffffffffffffffffffffffffffffffffffffff1614610565576040517f08c379a000000000000000000000000000000000000000000000000000000000815260040161055c90610b42565b60405180910390fd5b5f82828080601f0160208091040260200160405190810160405280939291908181526020018383808284375f81840152601f19601f820116905080830192505050505050509050604051806060016040528060015481526020018281526020015f81525060035f60015481526020019081526020015f205f820151815f015560208201518160010190816105f99190610d2a565b506040820151816002015590505060015f81548092919061061990610a54565b919050555060025f81548092919061063090610a54565b9190505550505050565b5f8054906101000a900473ffffffffffffffffffffffffffffffffffffffff1681565b60015481565b5f80fd5b5f80fd5b5f819050919050565b61067d8161066b565b8114610687575f80fd5b50565b5f8135905061069881610674565b92915050565b5f602082840312156106b3576106b2610663565b5b5f6106c08482850161068a565b91505092915050565b6106d28161066b565b82525050565b5f6020820190506106eb5f8301846106c9565b92915050565b5f73ffffffffffffffffffffffffffffffffffffffff82169050919050565b5f61071a826106f1565b9050919050565b61072a81610710565b8114610734575f80fd5b50565b5f8135905061074581610721565b92915050565b5f602082840312156107605761075f610663565b5b5f61076d84828501610737565b91505092915050565b5f8115159050919050565b61078a81610776565b82525050565b5f6020820190506107a35f830184610781565b92915050565b5f81519050919050565b5f82825260208201905092915050565b8281835e5f83830152505050565b5f601f19601f8301169050919050565b5f6107eb826107a9565b6107f581856107b3565b93506108058185602086016107c3565b61080e816107d1565b840191505092915050565b5f60608201905061082c5f8301866106c9565b818103602083015261083e81856107e1565b905061084d60408301846106c9565b949350505050565b5f6040820190508181035f83015261086d81856107e1565b905061087c60208301846106c9565b9392505050565b5f80fd5b5f80fd5b5f80fd5b5f8083601f8401126108a4576108a3610883565b5b8235905067ffffffffffffffff8111156108c1576108c0610887565b5b6020830191508360018202830111156108dd576108dc61088b565b5b9250929050565b5f80602083850312156108fa576108f9610663565b5b5f83013567ffffffffffffffff81111561091757610916610667565b5b6109238582860161088f565b92509250509250929050565b61093881610710565b82525050565b5f6020820190506109515f83018461092f565b92915050565b7f596f752063616e277420766f74652074776963650000000000000000000000005f82015250565b5f61098b6014836107b3565b915061099682610957565b602082019050919050565b5f6020820190508181035f8301526109b88161097f565b9050919050565b7f537563682063616e64696461746520646f6573206e6f742065786973740000005f82015250565b5f6109f3601d836107b3565b91506109fe826109bf565b602082019050919050565b5f6020820190508181035f830152610a20816109e7565b9050919050565b7f4e487b71000000000000000000000000000000000000000000000000000000005f52601160045260245ffd5b5f610a5e8261066b565b91507fffffffffffffffffffffffffffffffffffffffffffffffffffffffffffffffff8203610a9057610a8f610a27565b5b600182019050919050565b7f4e487b71000000000000000000000000000000000000000000000000000000005f52602260045260245ffd5b5f6002820490506001821680610adf57607f821691505b602082108103610af257610af1610a9b565b5b50919050565b7f596f7520646f6e277420686176652061636365737300000000000000000000005f82015250565b5f610b2c6015836107b3565b9150610b3782610af8565b602082019050919050565b5f6020820190508181035f830152610b5981610b20565b9050919050565b7f4e487b71000000000000000000000000000000000000000000000000000000005f52604160045260245ffd5b5f819050815f5260205f209050919050565b5f6020601f8301049050919050565b5f82821b905092915050565b5f60088302610be97fffffffffffffffffffffffffffffffffffffffffffffffffffffffffffffffff82610bae565b610bf38683610bae565b95508019841693508086168417925050509392505050565b5f819050919050565b5f610c2e610c29610c248461066b565b610c0b565b61066b565b9050919050565b5f819050919050565b610c4783610c14565b610c5b610c5382610c35565b848454610bba565b825550505050565b5f90565b610c6f610c63565b610c7a818484610c3e565b505050565b5b81811015610c9d57610c925f82610c67565b600181019050610c80565b5050565b601f821115610ce257610cb381610b8d565b610cbc84610b9f565b81016020851015610ccb578190505b610cdf610cd785610b9f565b830182610c7f565b50505b505050565b5f82821c905092915050565b5f610d025f1984600802610ce7565b1980831691505092915050565b5f610d1a8383610cf3565b9150826002028217905092915050565b610d33826107a9565b67ffffffffffffffff811115610d4c57610d4b610b60565b5b610d568254610ac8565b610d61828285610ca1565b5f60209050601f831160018114610d92575f8415610d80578287015190505b610d8a8582610d0f565b865550610df1565b601f198416610da086610b8d565b5f5b82811015610dc757848901518255600182019150602085019450602081019050610da2565b86831015610de45784890151610de0601f891682610cf3565b8355505b6001600288020188555050505b50505050505056fea2646970667358221220d32edc4a966e64d11e8d093f184b70eac39bdc2fae9306dab22cc1b03f0fb77d64736f6c634300081a0033",
					"opcodes": "PUSH1 0x80 PUSH1 0x40 MSTORE CALLVALUE DUP1 ISZERO PUSH1 0xE JUMPI PUSH0 DUP1 REVERT JUMPDEST POP CALLER PUSH0 DUP1 PUSH2 0x100 EXP DUP2 SLOAD DUP2 PUSH20 0xFFFFFFFFFFFFFFFFFFFFFFFFFFFFFFFFFFFFFFFF MUL NOT AND SWAP1 DUP4 PUSH20 0xFFFFFFFFFFFFFFFFFFFFFFFFFFFFFFFFFFFFFFFF AND MUL OR SWAP1 SSTORE POP PUSH2 0xE2F DUP1 PUSH2 0x5B PUSH0 CODECOPY PUSH0 RETURN INVALID PUSH1 0x80 PUSH1 0x40 MSTORE CALLVALUE DUP1 ISZERO PUSH2 0xF JUMPI PUSH0 DUP1 REVERT JUMPDEST POP PUSH1 0x4 CALLDATASIZE LT PUSH2 0x91 JUMPI PUSH0 CALLDATALOAD PUSH1 0xE0 SHR DUP1 PUSH4 0x35B8E820 GT PUSH2 0x64 JUMPI DUP1 PUSH4 0x35B8E820 EQ PUSH2 0x131 JUMPI DUP1 PUSH4 0x3866965C EQ PUSH2 0x162 JUMPI DUP1 PUSH4 0x462E91EC EQ PUSH2 0x180 JUMPI DUP1 PUSH4 0x8DA5CB5B EQ PUSH2 0x19C JUMPI DUP1 PUSH4 0xAF640D0F EQ PUSH2 0x1BA JUMPI PUSH2 0x91 JUMP JUMPDEST DUP1 PUSH4 0x121B93F EQ PUSH2 0x95 JUMPI DUP1 PUSH4 0xDEB56AB EQ PUSH2 0xB1 JUMPI DUP1 PUSH4 0x254FE7D7 EQ PUSH2 0xCF JUMPI DUP1 PUSH4 0x3477EE2E EQ PUSH2 0xFF JUMPI JUMPDEST PUSH0 DUP1 REVERT JUMPDEST PUSH2 0xAF PUSH1 0x4 DUP1 CALLDATASIZE SUB DUP2 ADD SWAP1 PUSH2 0xAA SWAP2 SWAP1 PUSH2 0x69E JUMP JUMPDEST PUSH2 0x1D8 JUMP JUMPDEST STOP JUMPDEST PUSH2 0xB9 PUSH2 0x327 JUMP JUMPDEST PUSH1 0x40 MLOAD PUSH2 0xC6 SWAP2 SWAP1 PUSH2 0x6D8 JUMP JUMPDEST PUSH1 0x40 MLOAD DUP1 SWAP2 SUB SWAP1 RETURN JUMPDEST PUSH2 0xE9 PUSH1 0x4 DUP1 CALLDATASIZE SUB DUP2 ADD SWAP1 PUSH2 0xE4 SWAP2 SWAP1 PUSH2 0x74B JUMP JUMPDEST PUSH2 0x330 JUMP JUMPDEST PUSH1 0x40 MLOAD PUSH2 0xF6 SWAP2 SWAP1 PUSH2 0x790 JUMP JUMPDEST PUSH1 0x40 MLOAD DUP1 SWAP2 SUB SWAP1 RETURN JUMPDEST PUSH2 0x119 PUSH1 0x4 DUP1 CALLDATASIZE SUB DUP2 ADD SWAP1 PUSH2 0x114 SWAP2 SWAP1 PUSH2 0x69E JUMP JUMPDEST PUSH2 0x34D JUMP JUMPDEST PUSH1 0x40 MLOAD PUSH2 0x128 SWAP4 SWAP3 SWAP2 SWAP1 PUSH2 0x819 JUMP JUMPDEST PUSH1 0x40 MLOAD DUP1 SWAP2 SUB SWAP1 RETURN JUMPDEST PUSH2 0x14B PUSH1 0x4 DUP1 CALLDATASIZE SUB DUP2 ADD SWAP1 PUSH2 0x146 SWAP2 SWAP1 PUSH2 0x69E JUMP JUMPDEST PUSH2 0x3F9 JUMP JUMPDEST PUSH1 0x40 MLOAD PUSH2 0x159 SWAP3 SWAP2 SWAP1 PUSH2 0x855 JUMP JUMPDEST PUSH1 0x40 MLOAD DUP1 SWAP2 SUB SWAP1 RETURN JUMPDEST PUSH2 0x16A PUSH2 0x4D2 JUMP JUMPDEST PUSH1 0x40 MLOAD PUSH2 0x177 SWAP2 SWAP1 PUSH2 0x6D8 JUMP JUMPDEST PUSH1 0x40 MLOAD DUP1 SWAP2 SUB SWAP1 RETURN JUMPDEST PUSH2 0x19A PUSH1 0x4 DUP1 CALLDATASIZE SUB DUP2 ADD SWAP1 PUSH2 0x195 SWAP2 SWAP1 PUSH2 0x8E4 JUMP JUMPDEST PUSH2 0x4D8 JUMP JUMPDEST STOP JUMPDEST PUSH2 0x1A4 PUSH2 0x63A JUMP JUMPDEST PUSH1 0x40 MLOAD PUSH2 0x1B1 SWAP2 SWAP1 PUSH2 0x93E JUMP JUMPDEST PUSH1 0x40 MLOAD DUP1 SWAP2 SUB SWAP1 RETURN JUMPDEST PUSH2 0x1C2 PUSH2 0x65D JUMP JUMPDEST PUSH1 0x40 MLOAD PUSH2 0x1CF SWAP2 SWAP1 PUSH2 0x6D8 JUMP JUMPDEST PUSH1 0x40 MLOAD DUP1 SWAP2 SUB SWAP1 RETURN JUMPDEST PUSH1 0x4 PUSH0 CALLER PUSH20 0xFFFFFFFFFFFFFFFFFFFFFFFFFFFFFFFFFFFFFFFF AND PUSH20 0xFFFFFFFFFFFFFFFFFFFFFFFFFFFFFFFFFFFFFFFF AND DUP2 MSTORE PUSH1 0x20 ADD SWAP1 DUP2 MSTORE PUSH1 0x20 ADD PUSH0 KECCAK256 PUSH0 SWAP1 SLOAD SWAP1 PUSH2 0x100 EXP SWAP1 DIV PUSH1 0xFF AND ISZERO PUSH2 0x262 JUMPI PUSH1 0x40 MLOAD PUSH32 0x8C379A000000000000000000000000000000000000000000000000000000000 DUP2 MSTORE PUSH1 0x4 ADD PUSH2 0x259 SWAP1 PUSH2 0x9A1 JUMP JUMPDEST PUSH1 0x40 MLOAD DUP1 SWAP2 SUB SWAP1 REVERT JUMPDEST PUSH1 0x2 SLOAD DUP2 LT PUSH2 0x2A6 JUMPI PUSH1 0x40 MLOAD PUSH32 0x8C379A000000000000000000000000000000000000000000000000000000000 DUP2 MSTORE PUSH1 0x4 ADD PUSH2 0x29D SWAP1 PUSH2 0xA09 JUMP JUMPDEST PUSH1 0x40 MLOAD DUP1 SWAP2 SUB SWAP1 REVERT JUMPDEST PUSH1 0x3 PUSH0 DUP3 DUP2 MSTORE PUSH1 0x20 ADD SWAP1 DUP2 MSTORE PUSH1 0x20 ADD PUSH0 KECCAK256 PUSH1 0x2 ADD PUSH0 DUP2 SLOAD DUP1 SWAP3 SWAP2 SWAP1 PUSH2 0x2CA SWAP1 PUSH2 0xA54 JUMP JUMPDEST SWAP2 SWAP1 POP SSTORE POP PUSH1 0x1 PUSH1 0x4 PUSH0 CALLER PUSH20 0xFFFFFFFFFFFFFFFFFFFFFFFFFFFFFFFFFFFFFFFF AND PUSH20 0xFFFFFFFFFFFFFFFFFFFFFFFFFFFFFFFFFFFFFFFF AND DUP2 MSTORE PUSH1 0x20 ADD SWAP1 DUP2 MSTORE PUSH1 0x20 ADD PUSH0 KECCAK256 PUSH0 PUSH2 0x100 EXP DUP2 SLOAD DUP2 PUSH1 0xFF MUL NOT AND SWAP1 DUP4 ISZERO ISZERO MUL OR SWAP1 SSTORE POP POP JUMP JUMPDEST PUSH0 PUSH1 0x2 SLOAD SWAP1 POP SWAP1 JUMP JUMPDEST PUSH1 0x4 PUSH1 0x20 MSTORE DUP1 PUSH0 MSTORE PUSH1 0x40 PUSH0 KECCAK256 PUSH0 SWAP2 POP SLOAD SWAP1 PUSH2 0x100 EXP SWAP1 DIV PUSH1 0xFF AND DUP2 JUMP JUMPDEST PUSH1 0x3 PUSH1 0x20 MSTORE DUP1 PUSH0 MSTORE PUSH1 0x40 PUSH0 KECCAK256 PUSH0 SWAP2 POP SWAP1 POP DUP1 PUSH0 ADD SLOAD SWAP1 DUP1 PUSH1 0x1 ADD DUP1 SLOAD PUSH2 0x372 SWAP1 PUSH2 0xAC8 JUMP JUMPDEST DUP1 PUSH1 0x1F ADD PUSH1 0x20 DUP1 SWAP2 DIV MUL PUSH1 0x20 ADD PUSH1 0x40 MLOAD SWAP1 DUP2 ADD PUSH1 0x40 MSTORE DUP1 SWAP3 SWAP2 SWAP1 DUP2 DUP2 MSTORE PUSH1 0x20 ADD DUP3 DUP1 SLOAD PUSH2 0x39E SWAP1 PUSH2 0xAC8 JUMP JUMPDEST DUP1 ISZERO PUSH2 0x3E9 JUMPI DUP1 PUSH1 0x1F LT PUSH2 0x3C0 JUMPI PUSH2 0x100 DUP1 DUP4 SLOAD DIV MUL DUP4 MSTORE SWAP2 PUSH1 0x20 ADD SWAP2 PUSH2 0x3E9 JUMP JUMPDEST DUP3 ADD SWAP2 SWAP1 PUSH0 MSTORE PUSH1 0x20 PUSH0 KECCAK256 SWAP1 JUMPDEST DUP2 SLOAD DUP2 MSTORE SWAP1 PUSH1 0x1 ADD SWAP1 PUSH1 0x20 ADD DUP1 DUP4 GT PUSH2 0x3CC JUMPI DUP3 SWAP1 SUB PUSH1 0x1F AND DUP3 ADD SWAP2 JUMPDEST POP POP POP POP POP SWAP1 DUP1 PUSH1 0x2 ADD SLOAD SWAP1 POP DUP4 JUMP JUMPDEST PUSH1 0x60 PUSH0 DUP1 PUSH1 0x3 PUSH0 DUP6 DUP2 MSTORE PUSH1 0x20 ADD SWAP1 DUP2 MSTORE PUSH1 0x20 ADD PUSH0 KECCAK256 PUSH1 0x40 MLOAD DUP1 PUSH1 0x60 ADD PUSH1 0x40 MSTORE SWAP1 DUP2 PUSH0 DUP3 ADD SLOAD DUP2 MSTORE PUSH1 0x20 ADD PUSH1 0x1 DUP3 ADD DUP1 SLOAD PUSH2 0x432 SWAP1 PUSH2 0xAC8 JUMP JUMPDEST DUP1 PUSH1 0x1F ADD PUSH1 0x20 DUP1 SWAP2 DIV MUL PUSH1 0x20 ADD PUSH1 0x40 MLOAD SWAP1 DUP2 ADD PUSH1 0x40 MSTORE DUP1 SWAP3 SWAP2 SWAP1 DUP2 DUP2 MSTORE PUSH1 0x20 ADD DUP3 DUP1 SLOAD PUSH2 0x45E SWAP1 PUSH2 0xAC8 JUMP JUMPDEST DUP1 ISZERO PUSH2 0x4A9 JUMPI DUP1 PUSH1 0x1F LT PUSH2 0x480 JUMPI PUSH2 0x100 DUP1 DUP4 SLOAD DIV MUL DUP4 MSTORE SWAP2 PUSH1 0x20 ADD SWAP2 PUSH2 0x4A9 JUMP JUMPDEST DUP3 ADD SWAP2 SWAP1 PUSH0 MSTORE PUSH1 0x20 PUSH0 KECCAK256 SWAP1 JUMPDEST DUP2 SLOAD DUP2 MSTORE SWAP1 PUSH1 0x1 ADD SWAP1 PUSH1 0x20 ADD DUP1 DUP4 GT PUSH2 0x48C JUMPI DUP3 SWAP1 SUB PUSH1 0x1F AND DUP3 ADD SWAP2 JUMPDEST POP POP POP POP POP DUP2 MSTORE PUSH1 0x20 ADD PUSH1 0x2 DUP3 ADD SLOAD DUP2 MSTORE POP POP SWAP1 POP DUP1 PUSH1 0x20 ADD MLOAD DUP2 PUSH1 0x40 ADD MLOAD SWAP3 POP SWAP3 POP POP SWAP2 POP SWAP2 JUMP JUMPDEST PUSH1 0x2 SLOAD DUP2 JUMP JUMPDEST CALLER PUSH20 0xFFFFFFFFFFFFFFFFFFFFFFFFFFFFFFFFFFFFFFFF AND PUSH0 DUP1 SLOAD SWAP1 PUSH2 0x100 EXP SWAP1 DIV PUSH20 0xFFFFFFFFFFFFFFFFFFFFFFFFFFFFFFFFFFFFFFFF AND PUSH20 0xFFFFFFFFFFFFFFFFFFFFFFFFFFFFFFFFFFFFFFFF AND EQ PUSH2 0x565 JUMPI PUSH1 0x40 MLOAD PUSH32 0x8C379A000000000000000000000000000000000000000000000000000000000 DUP2 MSTORE PUSH1 0x4 ADD PUSH2 0x55C SWAP1 PUSH2 0xB42 JUMP JUMPDEST PUSH1 0x40 MLOAD DUP1 SWAP2 SUB SWAP1 REVERT JUMPDEST PUSH0 DUP3 DUP3 DUP1 DUP1 PUSH1 0x1F ADD PUSH1 0x20 DUP1 SWAP2 DIV MUL PUSH1 0x20 ADD PUSH1 0x40 MLOAD SWAP1 DUP2 ADD PUSH1 0x40 MSTORE DUP1 SWAP4 SWAP3 SWAP2 SWAP1 DUP2 DUP2 MSTORE PUSH1 0x20 ADD DUP4 DUP4 DUP1 DUP3 DUP5 CALLDATACOPY PUSH0 DUP2 DUP5 ADD MSTORE PUSH1 0x1F NOT PUSH1 0x1F DUP3 ADD AND SWAP1 POP DUP1 DUP4 ADD SWAP3 POP POP POP POP POP POP POP SWAP1 POP PUSH1 0x40 MLOAD DUP1 PUSH1 0x60 ADD PUSH1 0x40 MSTORE DUP1 PUSH1 0x1 SLOAD DUP2 MSTORE PUSH1 0x20 ADD DUP3 DUP2 MSTORE PUSH1 0x20 ADD PUSH0 DUP2 MSTORE POP PUSH1 0x3 PUSH0 PUSH1 0x1 SLOAD DUP2 MSTORE PUSH1 0x20 ADD SWAP1 DUP2 MSTORE PUSH1 0x20 ADD PUSH0 KECCAK256 PUSH0 DUP3 ADD MLOAD DUP2 PUSH0 ADD SSTORE PUSH1 0x20 DUP3 ADD MLOAD DUP2 PUSH1 0x1 ADD SWAP1 DUP2 PUSH2 0x5F9 SWAP2 SWAP1 PUSH2 0xD2A JUMP JUMPDEST POP PUSH1 0x40 DUP3 ADD MLOAD DUP2 PUSH1 0x2 ADD SSTORE SWAP1 POP POP PUSH1 0x1 PUSH0 DUP2 SLOAD DUP1 SWAP3 SWAP2 SWAP1 PUSH2 0x619 SWAP1 PUSH2 0xA54 JUMP JUMPDEST SWAP2 SWAP1 POP SSTORE POP PUSH1 0x2 PUSH0 DUP2 SLOAD DUP1 SWAP3 SWAP2 SWAP1 PUSH2 0x630 SWAP1 PUSH2 0xA54 JUMP JUMPDEST SWAP2 SWAP1 POP SSTORE POP POP POP POP JUMP JUMPDEST PUSH0 DUP1 SLOAD SWAP1 PUSH2 0x100 EXP SWAP1 DIV PUSH20 0xFFFFFFFFFFFFFFFFFFFFFFFFFFFFFFFFFFFFFFFF AND DUP2 JUMP JUMPDEST PUSH1 0x1 SLOAD DUP2 JUMP JUMPDEST PUSH0 DUP1 REVERT JUMPDEST PUSH0 DUP1 REVERT JUMPDEST PUSH0 DUP2 SWAP1 POP SWAP2 SWAP1 POP JUMP JUMPDEST PUSH2 0x67D DUP2 PUSH2 0x66B JUMP JUMPDEST DUP2 EQ PUSH2 0x687 JUMPI PUSH0 DUP1 REVERT JUMPDEST POP JUMP JUMPDEST PUSH0 DUP2 CALLDATALOAD SWAP1 POP PUSH2 0x698 DUP2 PUSH2 0x674 JUMP JUMPDEST SWAP3 SWAP2 POP POP JUMP JUMPDEST PUSH0 PUSH1 0x20 DUP3 DUP5 SUB SLT ISZERO PUSH2 0x6B3 JUMPI PUSH2 0x6B2 PUSH2 0x663 JUMP JUMPDEST JUMPDEST PUSH0 PUSH2 0x6C0 DUP5 DUP3 DUP6 ADD PUSH2 0x68A JUMP JUMPDEST SWAP2 POP POP SWAP3 SWAP2 POP POP JUMP JUMPDEST PUSH2 0x6D2 DUP2 PUSH2 0x66B JUMP JUMPDEST DUP3 MSTORE POP POP JUMP JUMPDEST PUSH0 PUSH1 0x20 DUP3 ADD SWAP1 POP PUSH2 0x6EB PUSH0 DUP4 ADD DUP5 PUSH2 0x6C9 JUMP JUMPDEST SWAP3 SWAP2 POP POP JUMP JUMPDEST PUSH0 PUSH20 0xFFFFFFFFFFFFFFFFFFFFFFFFFFFFFFFFFFFFFFFF DUP3 AND SWAP1 POP SWAP2 SWAP1 POP JUMP JUMPDEST PUSH0 PUSH2 0x71A DUP3 PUSH2 0x6F1 JUMP JUMPDEST SWAP1 POP SWAP2 SWAP1 POP JUMP JUMPDEST PUSH2 0x72A DUP2 PUSH2 0x710 JUMP JUMPDEST DUP2 EQ PUSH2 0x734 JUMPI PUSH0 DUP1 REVERT JUMPDEST POP JUMP JUMPDEST PUSH0 DUP2 CALLDATALOAD SWAP1 POP PUSH2 0x745 DUP2 PUSH2 0x721 JUMP JUMPDEST SWAP3 SWAP2 POP POP JUMP JUMPDEST PUSH0 PUSH1 0x20 DUP3 DUP5 SUB SLT ISZERO PUSH2 0x760 JUMPI PUSH2 0x75F PUSH2 0x663 JUMP JUMPDEST JUMPDEST PUSH0 PUSH2 0x76D DUP5 DUP3 DUP6 ADD PUSH2 0x737 JUMP JUMPDEST SWAP2 POP POP SWAP3 SWAP2 POP POP JUMP JUMPDEST PUSH0 DUP2 ISZERO ISZERO SWAP1 POP SWAP2 SWAP1 POP JUMP JUMPDEST PUSH2 0x78A DUP2 PUSH2 0x776 JUMP JUMPDEST DUP3 MSTORE POP POP JUMP JUMPDEST PUSH0 PUSH1 0x20 DUP3 ADD SWAP1 POP PUSH2 0x7A3 PUSH0 DUP4 ADD DUP5 PUSH2 0x781 JUMP JUMPDEST SWAP3 SWAP2 POP POP JUMP JUMPDEST PUSH0 DUP2 MLOAD SWAP1 POP SWAP2 SWAP1 POP JUMP JUMPDEST PUSH0 DUP3 DUP3 MSTORE PUSH1 0x20 DUP3 ADD SWAP1 POP SWAP3 SWAP2 POP POP JUMP JUMPDEST DUP3 DUP2 DUP4 MCOPY PUSH0 DUP4 DUP4 ADD MSTORE POP POP POP JUMP JUMPDEST PUSH0 PUSH1 0x1F NOT PUSH1 0x1F DUP4 ADD AND SWAP1 POP SWAP2 SWAP1 POP JUMP JUMPDEST PUSH0 PUSH2 0x7EB DUP3 PUSH2 0x7A9 JUMP JUMPDEST PUSH2 0x7F5 DUP2 DUP6 PUSH2 0x7B3 JUMP JUMPDEST SWAP4 POP PUSH2 0x805 DUP2 DUP6 PUSH1 0x20 DUP7 ADD PUSH2 0x7C3 JUMP JUMPDEST PUSH2 0x80E DUP2 PUSH2 0x7D1 JUMP JUMPDEST DUP5 ADD SWAP2 POP POP SWAP3 SWAP2 POP POP JUMP JUMPDEST PUSH0 PUSH1 0x60 DUP3 ADD SWAP1 POP PUSH2 0x82C PUSH0 DUP4 ADD DUP7 PUSH2 0x6C9 JUMP JUMPDEST DUP2 DUP2 SUB PUSH1 0x20 DUP4 ADD MSTORE PUSH2 0x83E DUP2 DUP6 PUSH2 0x7E1 JUMP JUMPDEST SWAP1 POP PUSH2 0x84D PUSH1 0x40 DUP4 ADD DUP5 PUSH2 0x6C9 JUMP JUMPDEST SWAP5 SWAP4 POP POP POP POP JUMP JUMPDEST PUSH0 PUSH1 0x40 DUP3 ADD SWAP1 POP DUP2 DUP2 SUB PUSH0 DUP4 ADD MSTORE PUSH2 0x86D DUP2 DUP6 PUSH2 0x7E1 JUMP JUMPDEST SWAP1 POP PUSH2 0x87C PUSH1 0x20 DUP4 ADD DUP5 PUSH2 0x6C9 JUMP JUMPDEST SWAP4 SWAP3 POP POP POP JUMP JUMPDEST PUSH0 DUP1 REVERT JUMPDEST PUSH0 DUP1 REVERT JUMPDEST PUSH0 DUP1 REVERT JUMPDEST PUSH0 DUP1 DUP4 PUSH1 0x1F DUP5 ADD SLT PUSH2 0x8A4 JUMPI PUSH2 0x8A3 PUSH2 0x883 JUMP JUMPDEST JUMPDEST DUP3 CALLDATALOAD SWAP1 POP PUSH8 0xFFFFFFFFFFFFFFFF DUP2 GT ISZERO PUSH2 0x8C1 JUMPI PUSH2 0x8C0 PUSH2 0x887 JUMP JUMPDEST JUMPDEST PUSH1 0x20 DUP4 ADD SWAP2 POP DUP4 PUSH1 0x1 DUP3 MUL DUP4 ADD GT ISZERO PUSH2 0x8DD JUMPI PUSH2 0x8DC PUSH2 0x88B JUMP JUMPDEST JUMPDEST SWAP3 POP SWAP3 SWAP1 POP JUMP JUMPDEST PUSH0 DUP1 PUSH1 0x20 DUP4 DUP6 SUB SLT ISZERO PUSH2 0x8FA JUMPI PUSH2 0x8F9 PUSH2 0x663 JUMP JUMPDEST JUMPDEST PUSH0 DUP4 ADD CALLDATALOAD PUSH8 0xFFFFFFFFFFFFFFFF DUP2 GT ISZERO PUSH2 0x917 JUMPI PUSH2 0x916 PUSH2 0x667 JUMP JUMPDEST JUMPDEST PUSH2 0x923 DUP6 DUP3 DUP7 ADD PUSH2 0x88F JUMP JUMPDEST SWAP3 POP SWAP3 POP POP SWAP3 POP SWAP3 SWAP1 POP JUMP JUMPDEST PUSH2 0x938 DUP2 PUSH2 0x710 JUMP JUMPDEST DUP3 MSTORE POP POP JUMP JUMPDEST PUSH0 PUSH1 0x20 DUP3 ADD SWAP1 POP PUSH2 0x951 PUSH0 DUP4 ADD DUP5 PUSH2 0x92F JUMP JUMPDEST SWAP3 SWAP2 POP POP JUMP JUMPDEST PUSH32 0x596F752063616E277420766F7465207477696365000000000000000000000000 PUSH0 DUP3 ADD MSTORE POP JUMP JUMPDEST PUSH0 PUSH2 0x98B PUSH1 0x14 DUP4 PUSH2 0x7B3 JUMP JUMPDEST SWAP2 POP PUSH2 0x996 DUP3 PUSH2 0x957 JUMP JUMPDEST PUSH1 0x20 DUP3 ADD SWAP1 POP SWAP2 SWAP1 POP JUMP JUMPDEST PUSH0 PUSH1 0x20 DUP3 ADD SWAP1 POP DUP2 DUP2 SUB PUSH0 DUP4 ADD MSTORE PUSH2 0x9B8 DUP2 PUSH2 0x97F JUMP JUMPDEST SWAP1 POP SWAP2 SWAP1 POP JUMP JUMPDEST PUSH32 0x537563682063616E64696461746520646F6573206E6F74206578697374000000 PUSH0 DUP3 ADD MSTORE POP JUMP JUMPDEST PUSH0 PUSH2 0x9F3 PUSH1 0x1D DUP4 PUSH2 0x7B3 JUMP JUMPDEST SWAP2 POP PUSH2 0x9FE DUP3 PUSH2 0x9BF JUMP JUMPDEST PUSH1 0x20 DUP3 ADD SWAP1 POP SWAP2 SWAP1 POP JUMP JUMPDEST PUSH0 PUSH1 0x20 DUP3 ADD SWAP1 POP DUP2 DUP2 SUB PUSH0 DUP4 ADD MSTORE PUSH2 0xA20 DUP2 PUSH2 0x9E7 JUMP JUMPDEST SWAP1 POP SWAP2 SWAP1 POP JUMP JUMPDEST PUSH32 0x4E487B7100000000000000000000000000000000000000000000000000000000 PUSH0 MSTORE PUSH1 0x11 PUSH1 0x4 MSTORE PUSH1 0x24 PUSH0 REVERT JUMPDEST PUSH0 PUSH2 0xA5E DUP3 PUSH2 0x66B JUMP JUMPDEST SWAP2 POP PUSH32 0xFFFFFFFFFFFFFFFFFFFFFFFFFFFFFFFFFFFFFFFFFFFFFFFFFFFFFFFFFFFFFFFF DUP3 SUB PUSH2 0xA90 JUMPI PUSH2 0xA8F PUSH2 0xA27 JUMP JUMPDEST JUMPDEST PUSH1 0x1 DUP3 ADD SWAP1 POP SWAP2 SWAP1 POP JUMP JUMPDEST PUSH32 0x4E487B7100000000000000000000000000000000000000000000000000000000 PUSH0 MSTORE PUSH1 0x22 PUSH1 0x4 MSTORE PUSH1 0x24 PUSH0 REVERT JUMPDEST PUSH0 PUSH1 0x2 DUP3 DIV SWAP1 POP PUSH1 0x1 DUP3 AND DUP1 PUSH2 0xADF JUMPI PUSH1 0x7F DUP3 AND SWAP2 POP JUMPDEST PUSH1 0x20 DUP3 LT DUP2 SUB PUSH2 0xAF2 JUMPI PUSH2 0xAF1 PUSH2 0xA9B JUMP JUMPDEST JUMPDEST POP SWAP2 SWAP1 POP JUMP JUMPDEST PUSH32 0x596F7520646F6E27742068617665206163636573730000000000000000000000 PUSH0 DUP3 ADD MSTORE POP JUMP JUMPDEST PUSH0 PUSH2 0xB2C PUSH1 0x15 DUP4 PUSH2 0x7B3 JUMP JUMPDEST SWAP2 POP PUSH2 0xB37 DUP3 PUSH2 0xAF8 JUMP JUMPDEST PUSH1 0x20 DUP3 ADD SWAP1 POP SWAP2 SWAP1 POP JUMP JUMPDEST PUSH0 PUSH1 0x20 DUP3 ADD SWAP1 POP DUP2 DUP2 SUB PUSH0 DUP4 ADD MSTORE PUSH2 0xB59 DUP2 PUSH2 0xB20 JUMP JUMPDEST SWAP1 POP SWAP2 SWAP1 POP JUMP JUMPDEST PUSH32 0x4E487B7100000000000000000000000000000000000000000000000000000000 PUSH0 MSTORE PUSH1 0x41 PUSH1 0x4 MSTORE PUSH1 0x24 PUSH0 REVERT JUMPDEST PUSH0 DUP2 SWAP1 POP DUP2 PUSH0 MSTORE PUSH1 0x20 PUSH0 KECCAK256 SWAP1 POP SWAP2 SWAP1 POP JUMP JUMPDEST PUSH0 PUSH1 0x20 PUSH1 0x1F DUP4 ADD DIV SWAP1 POP SWAP2 SWAP1 POP JUMP JUMPDEST PUSH0 DUP3 DUP3 SHL SWAP1 POP SWAP3 SWAP2 POP POP JUMP JUMPDEST PUSH0 PUSH1 0x8 DUP4 MUL PUSH2 0xBE9 PUSH32 0xFFFFFFFFFFFFFFFFFFFFFFFFFFFFFFFFFFFFFFFFFFFFFFFFFFFFFFFFFFFFFFFF DUP3 PUSH2 0xBAE JUMP JUMPDEST PUSH2 0xBF3 DUP7 DUP4 PUSH2 0xBAE JUMP JUMPDEST SWAP6 POP DUP1 NOT DUP5 AND SWAP4 POP DUP1 DUP7 AND DUP5 OR SWAP3 POP POP POP SWAP4 SWAP3 POP POP POP JUMP JUMPDEST PUSH0 DUP2 SWAP1 POP SWAP2 SWAP1 POP JUMP JUMPDEST PUSH0 PUSH2 0xC2E PUSH2 0xC29 PUSH2 0xC24 DUP5 PUSH2 0x66B JUMP JUMPDEST PUSH2 0xC0B JUMP JUMPDEST PUSH2 0x66B JUMP JUMPDEST SWAP1 POP SWAP2 SWAP1 POP JUMP JUMPDEST PUSH0 DUP2 SWAP1 POP SWAP2 SWAP1 POP JUMP JUMPDEST PUSH2 0xC47 DUP4 PUSH2 0xC14 JUMP JUMPDEST PUSH2 0xC5B PUSH2 0xC53 DUP3 PUSH2 0xC35 JUMP JUMPDEST DUP5 DUP5 SLOAD PUSH2 0xBBA JUMP JUMPDEST DUP3 SSTORE POP POP POP POP JUMP JUMPDEST PUSH0 SWAP1 JUMP JUMPDEST PUSH2 0xC6F PUSH2 0xC63 JUMP JUMPDEST PUSH2 0xC7A DUP2 DUP5 DUP5 PUSH2 0xC3E JUMP JUMPDEST POP POP POP JUMP JUMPDEST JUMPDEST DUP2 DUP2 LT ISZERO PUSH2 0xC9D JUMPI PUSH2 0xC92 PUSH0 DUP3 PUSH2 0xC67 JUMP JUMPDEST PUSH1 0x1 DUP2 ADD SWAP1 POP PUSH2 0xC80 JUMP JUMPDEST POP POP JUMP JUMPDEST PUSH1 0x1F DUP3 GT ISZERO PUSH2 0xCE2 JUMPI PUSH2 0xCB3 DUP2 PUSH2 0xB8D JUMP JUMPDEST PUSH2 0xCBC DUP5 PUSH2 0xB9F JUMP JUMPDEST DUP2 ADD PUSH1 0x20 DUP6 LT ISZERO PUSH2 0xCCB JUMPI DUP2 SWAP1 POP JUMPDEST PUSH2 0xCDF PUSH2 0xCD7 DUP6 PUSH2 0xB9F JUMP JUMPDEST DUP4 ADD DUP3 PUSH2 0xC7F JUMP JUMPDEST POP POP JUMPDEST POP POP POP JUMP JUMPDEST PUSH0 DUP3 DUP3 SHR SWAP1 POP SWAP3 SWAP2 POP POP JUMP JUMPDEST PUSH0 PUSH2 0xD02 PUSH0 NOT DUP5 PUSH1 0x8 MUL PUSH2 0xCE7 JUMP JUMPDEST NOT DUP1 DUP4 AND SWAP2 POP POP SWAP3 SWAP2 POP POP JUMP JUMPDEST PUSH0 PUSH2 0xD1A DUP4 DUP4 PUSH2 0xCF3 JUMP JUMPDEST SWAP2 POP DUP3 PUSH1 0x2 MUL DUP3 OR SWAP1 POP SWAP3 SWAP2 POP POP JUMP JUMPDEST PUSH2 0xD33 DUP3 PUSH2 0x7A9 JUMP JUMPDEST PUSH8 0xFFFFFFFFFFFFFFFF DUP2 GT ISZERO PUSH2 0xD4C JUMPI PUSH2 0xD4B PUSH2 0xB60 JUMP JUMPDEST JUMPDEST PUSH2 0xD56 DUP3 SLOAD PUSH2 0xAC8 JUMP JUMPDEST PUSH2 0xD61 DUP3 DUP3 DUP6 PUSH2 0xCA1 JUMP JUMPDEST PUSH0 PUSH1 0x20 SWAP1 POP PUSH1 0x1F DUP4 GT PUSH1 0x1 DUP2 EQ PUSH2 0xD92 JUMPI PUSH0 DUP5 ISZERO PUSH2 0xD80 JUMPI DUP3 DUP8 ADD MLOAD SWAP1 POP JUMPDEST PUSH2 0xD8A DUP6 DUP3 PUSH2 0xD0F JUMP JUMPDEST DUP7 SSTORE POP PUSH2 0xDF1 JUMP JUMPDEST PUSH1 0x1F NOT DUP5 AND PUSH2 0xDA0 DUP7 PUSH2 0xB8D JUMP JUMPDEST PUSH0 JUMPDEST DUP3 DUP2 LT ISZERO PUSH2 0xDC7 JUMPI DUP5 DUP10 ADD MLOAD DUP3 SSTORE PUSH1 0x1 DUP3 ADD SWAP2 POP PUSH1 0x20 DUP6 ADD SWAP5 POP PUSH1 0x20 DUP2 ADD SWAP1 POP PUSH2 0xDA2 JUMP JUMPDEST DUP7 DUP4 LT ISZERO PUSH2 0xDE4 JUMPI DUP5 DUP10 ADD MLOAD PUSH2 0xDE0 PUSH1 0x1F DUP10 AND DUP3 PUSH2 0xCF3 JUMP JUMPDEST DUP4 SSTORE POP JUMPDEST PUSH1 0x1 PUSH1 0x2 DUP9 MUL ADD DUP9 SSTORE POP POP POP JUMPDEST POP POP POP POP POP POP JUMP INVALID LOG2 PUSH5 0x6970667358 0x22 SLT KECCAK256 0xD3 0x2E 0xDC BLOBBASEFEE SWAP7 PUSH15 0x64D11E8D093F184B70EAC39BDC2FAE SWAP4 MOD 0xDA 0xB2 0x2C 0xC1 0xB0 EXTCODEHASH 0xF 0xB7 PUSH30 0x64736F6C634300081A003300000000000000000000000000000000000000 "
				},
				"gasEstimates": {
					"creation": {
						"codeDepositCost": "726200",
						"executionCost": "25023",
						"totalCost": "751223"
					},
					"external": {
						"addCandidate(string)": "infinite",
						"candidates(uint256)": "infinite",
						"getCandidate(uint256)": "infinite",
						"getTotalCandidates()": "2455",
						"id()": "2513",
						"owner()": "2571",
						"totalCandidates()": "2447",
						"userVoted(address)": "2878",
						"vote(uint256)": "infinite"
					}
				},
				"methodIdentifiers": {
					"addCandidate(string)": "462e91ec",
					"candidates(uint256)": "3477ee2e",
					"getCandidate(uint256)": "35b8e820",
					"getTotalCandidates()": "0deb56ab",
					"id()": "af640d0f",
					"owner()": "8da5cb5b",
					"totalCandidates()": "3866965c",
					"userVoted(address)": "254fe7d7",
					"vote(uint256)": "0121b93f"
				}
			},
			"storageLayout": {
				"storage": [
					{
						"astId": 3,
						"contract": "contract/votingsystem.sol:VotingSystem",
						"label": "owner",
						"offset": 0,
						"slot": "0",
						"type": "t_address"
					},
					{
						"astId": 36,
						"contract": "contract/votingsystem.sol:VotingSystem",
						"label": "id",
						"offset": 0,
						"slot": "1",
						"type": "t_uint256"
					},
					{
						"astId": 38,
						"contract": "contract/votingsystem.sol:VotingSystem",
						"label": "totalCandidates",
						"offset": 0,
						"slot": "2",
						"type": "t_uint256"
					},
					{
						"astId": 43,
						"contract": "contract/votingsystem.sol:VotingSystem",
						"label": "candidates",
						"offset": 0,
						"slot": "3",
						"type": "t_mapping(t_uint256,t_struct(Candidate)34_storage)"
					},
					{
						"astId": 47,
						"contract": "contract/votingsystem.sol:VotingSystem",
						"label": "userVoted",
						"offset": 0,
						"slot": "4",
						"type": "t_mapping(t_address,t_bool)"
					}
				],
				"types": {
					"t_address": {
						"encoding": "inplace",
						"label": "address",
						"numberOfBytes": "20"
					},
					"t_bool": {
						"encoding": "inplace",
						"label": "bool",
						"numberOfBytes": "1"
					},
					"t_mapping(t_address,t_bool)": {
						"encoding": "mapping",
						"key": "t_address",
						"label": "mapping(address => bool)",
						"numberOfBytes": "32",
						"value": "t_bool"
					},
					"t_mapping(t_uint256,t_struct(Candidate)34_storage)": {
						"encoding": "mapping",
						"key": "t_uint256",
						"label": "mapping(uint256 => struct VotingSystem.Candidate)",
						"numberOfBytes": "32",
						"value": "t_struct(Candidate)34_storage"
					},
					"t_string_storage": {
						"encoding": "bytes",
						"label": "string",
						"numberOfBytes": "32"
					},
					"t_struct(Candidate)34_storage": {
						"encoding": "inplace",
						"label": "struct VotingSystem.Candidate",
						"members": [
							{
								"astId": 29,
								"contract": "contract/votingsystem.sol:VotingSystem",
								"label": "id",
								"offset": 0,
								"slot": "0",
								"type": "t_uint256"
							},
							{
								"astId": 31,
								"contract": "contract/votingsystem.sol:VotingSystem",
								"label": "name",
								"offset": 0,
								"slot": "1",
								"type": "t_string_storage"
							},
							{
								"astId": 33,
								"contract": "contract/votingsystem.sol:VotingSystem",
								"label": "voteCount",
								"offset": 0,
								"slot": "2",
								"type": "t_uint256"
							}
						],
						"numberOfBytes": "96"
					},
					"t_uint256": {
						"encoding": "inplace",
						"label": "uint256",
						"numberOfBytes": "32"
					}
				}
			},
			"userdoc": {
				"kind": "user",
				"methods": {},
				"version": 1
			}
		}
	}
}